:100000000C9402170C943B170C943B170C943B1761
:100010000C943B170C943B170C943B170C943B1718
:100020000C943B170C943B170C943B170C943B1708
:100030000C943B170C947D820C943B170C943B174B
:100040000C943B170C94057D0C946ED40C943B17C8
:100050000C945F540C9455540C943B170C943B1720
:100060000C943B170C943B170C943B170C943B17C8
:100070000C943B170C943B170C943B170C943B17B8
:100080000C9403440C943B170C943B174E414E497F
:100090004E495459494E46CDCCCC3D0AD7233C1746
:1000A000B7D13877CC2B329595E6241FB14F0A0093
:1000B0000020410000C84200401C4620BCBE4CCA83
:1000C0001B0E5AAEC59D7400407A10F35A00A07200
:1000D0004E18090010A5D4E80000E8764817000083
:1000E000E40B54020000CA9A3B000000E1F5050051
:1000F0000080969800000040420F000000A086019A
:10010000000000102700000000E803000000006469
:1001100000000000000A00000000000100000000D4
:10012000002C76D888DC674F0823DFC1DFAE59E1A9
:10013000B1B796E5E3E453C63AE651997696E8E618
:10014000C28426EB898C9B62ED407C6FFCEFBC9CEB
:100150009F40F2BAA56FA5F490055A2AF75C936BFD
:100160006CF9676DC11BFCE0E40D47FEF520E6B5B8
:1001700000D0ED902E0300943577050080841E0892
:100180000000204E0A000000C80C333333330F98B0
:100190006E12831141EF8D2114893BE65516CFFE77
:1001A000E6DB18D1844B381BF77C1D901DA4BBE403
:1001B00024203284725E228100C9F124ECA1E53D45
:1001C00027434F4D4D554E49434154494F4E0044EE
:1001D000525952554E004552524F525300494E46C5
:1001E0004F004543484F0053544F505045442E2034
:1001F000005072696E7465722073746F70706564FC
:100200002064756520746F206572726F72732E2082
:1002100046697820746865206572726F7220616E1D
:100220006420757365204D39393920746F207265EB
:1002300073746172742E202854656D7065726174D8
:100240007572652069732072657365742E2053651D
:1002500074206974206166746572207265737461BC
:100260007274696E67290A004E6F20436865636B7C
:1002700073756D2077697468206C696E65206E7582
:100280006D6265722C204C617374204C696E653A06
:1002900020004E6F20436865636B73756D2077692E
:1002A0007468206C696E65206E756D6265722C20B5
:1002B0004C617374204C696E653A20006368656315
:1002C0006B73756D206D69736D617463682C204C60
:1002D000617374204C696E653A20004C696E65202C
:1002E0004E756D626572206973206E6F74204C616B
:1002F0007374204C696E65204E756D6265722B318A
:100300002C204C617374204C696E653A20004D318D
:1003100031300053657269616C2073746174757358
:10032000206D69736D617463680A005344207265BF
:100330006164206572726F720A002121204B494C62
:100340004C2063617573656420627920746F6F203F
:100350006D75636820696E61637469766520746980
:100360006D65202D2063757272656E7420636F6DEC
:100370006D616E643A2000627573793A2070617520
:1003800073656420666F7220696E7075740A00620E
:100390007573793A2070617573656420666F722099
:1003A000757365720A00627573793A2070726F63B3
:1003B000657373696E670A004D6564696120496EF3
:1003C00073657274656400506C6561736520526575
:1003D000736574005052494E5445522048414C5464
:1003E00045440025533A202553004B494C4C454485
:1003F0002E20005072696E7465722068616C74659D
:10040000642E206B696C6C28292063616C6C6564B8
:10041000210A0053544F505045442E200050726919
:100420006E7465722073746F707065642064756596
:1004300020746F206572726F72732E204669782067
:10044000746865206572726F7220616E64207573C6
:1004500065204D39393920746F207265737461726B
:10046000742E202854656D706572617475726520F4
:1004700069732072657365742E20536574206974E6
:100480002061667465722072657374617274696E3E
:1004900067290A006563686F3A004572726F723AA5
:1004A000004F4646004F4E0042696C696E656172AE
:1004B000204C6576656C696E6720477269643A0AFC
:1004C0000021212053544F502063616C6C656420DF
:1004D00062656361757365206F6620424C546F7569
:1004E0006368206572726F72202D2072657374616B
:1004F00072742077697468204D3939390A002121D6
:100500002053544F502063616C6C656420626563B6
:1005100061757365206F6620424C546F7563682067
:100520006572726F72202D2072657374617274200F
:1005300077697468204D3939390A004F46460A00F8
:100540004661646520486569676874200042656497
:10055000204C6576656C696E6720004661696C6544
:100560006420746F20656E61626C65204265642052
:100570004C6576656C696E670A00496E76616C69D8
:1005800064206D6573682E0A0050726F62696E6731
:1005900020506F696E740025532025692F2569004E
:1005A0002E0A002F0050726F62696E67206D6573AE
:1005B0006820706F696E742000202844525952558B
:1005C0004E2900473239204175746F2042656420FE
:1005D0004C6576656C696E67003F20284C2C522C68
:1005E000462C4229206F7574206F6620626F756EED
:1005F00064732E0A003F2856296572626F73652066
:100600006C6576656C20696D706C61757369626C80
:10061000652028302D34292E0A00426164205A209A
:1006200076616C75650A004E6F2062696C696E6553
:10063000617220677269640A0020440020204D32F4
:100640003030205300202844697361626C6564294E
:100650003A0046696C616D656E74207365747469E7
:100660006E67730020204D3230312058004D617884
:1006700020416363656C65726174696F6E202875D3
:100680006E6974732F7332290020204D323033206D
:1006900058004D61782066656564726174657320E9
:1006A00028756E6974732F73290020520020204D25
:1006B000323034205000416363656C657261746947
:1006C0006F6E2028756E6974732F7332292028503D
:1006D0003C7072696E742D616363656C3E20523CA0
:1006E000726574726163742D616363656C3E20543E
:1006F0003C74726176656C2D616363656C3E2900A4
:10070000204A0020540020530020204D3230352054
:100710004200416476616E6365642028423C6D69E5
:100720006E5F7365676D656E745F74696D655F7527
:10073000733E20533C6D696E5F66656564726174DB
:10074000653E20543C6D696E5F74726176656C5FC6
:1007500066656564726174653E204A3C6A756E63C5
:100760005F6465763E290020440020490020204D2A
:10077000333031205000486F74656E642050494416
:10078000002E0A00206E6F742064697361626C65CC
:10079000642E205368617265642077697468002054
:1007A000496E76616C6964206578747275646572EF
:1007B0002000536C6565702E2E2E005A2050726FEB
:1007C00062652050617374204265640A005A2050AB
:1007D000726F626520506173742042656400205A14
:1007E0003A200020593A200042656420583A2000FF
:1007F0004D65736820706F696E74206F7574206F1B
:10080000662072616E67650A00436C69636B2074D1
:100810006F20526573756D652E2E2E00616C736F9F
:1008200020656E61626C6564290A004E6F204D6F11
:1008300076652E00456E642066696C65206C697370
:10084000740A00426567696E2066696C65206C6990
:1008500073740A004E6F206D656469610A00286E2A
:100860006F2066696C65290043757272656E74202D
:1008700066696C653A20005344207072696E746931
:100880006E67206279746520004E6F742053442097
:100890007072696E74696E670A002E0A0044656C96
:1008A0006574696F6E206661696C65642028726585
:1008B00061642D6F6E6C79292C2046696C653A2035
:1008C000002569730025696D202569730025696815
:1008D0002025696D202569730025696420256968D4
:1008E0002025696D202569730025697920256964B3
:1008F000202569682025696D20256973005072697B
:100900006E742074696D653A20006F6B006F6666C7
:1009100000E201DD01D601CF01C101444542554746
:100920003A004D3131322053687574646F776E0030
:100930004D313133205300456E6465722D33204FA5
:1009400046462E00434F4E4649475F4558504F524A
:1009500054004D4541545041434B00434F4F4C458B
:10096000525F54454D5045524154555245004348FD
:10097000414D4245525F54454D50455241545552A8
:100980004500424142595354455050494E47004159
:10099000524353004D4F54494F4E5F4D4F444553C2
:1009A00000544845524D414C5F50524F54454354BA
:1009B000494F4E00455854454E4445445F4D3230F2
:1009C000004C4F4E475F46494C454E414D45004116
:1009D00055544F5245504F52545F53445F53544106
:1009E0005455530053445F575249544500524550A3
:1009F000454154005344434152440050524F4D50DE
:100A0000545F535550504F525400484F53545F4118
:100A10004354494F4E5F434F4D4D414E4453004563
:100A20004D455247454E43595F5041525345520040
:100A3000434153455F4C494748545F4252494748F8
:100A4000544E45535300544F47474C455F4C49471C
:100A500048545300534F4654574152455F504F57E7
:100A60004552004255494C445F50455243454E540F
:100A7000004C4556454C494E475F44415441005A4D
:100A80005F50524F42450052554E4F55540041550C
:100A9000544F4C4556454C005052494E545F4A4FB6
:100AA000420050524F4752455353004155544F5204
:100AB00045504F52545F54454D50004155544F528C
:100AC00045504F52545F504F5300564F4C554D4573
:100AD0005452494300454550524F4D0042494E4102
:100AE00052595F46494C455F5452414E5346455218
:100AF0000053455249414C5F584F4E5F584F464650
:100B0000004649524D574152455F4E414D453A4D81
:100B100061726C696E20322E302E392E3320284DB2
:100B2000617920313220323032322031373A313659
:100B30003A35372920534F555243455F434F44457B
:100B40005F55524C3A6769746875622E636F6D2FFA
:100B50004D61726C696E4669726D776172652F4D79
:100B600061726C696E2050524F544F434F4C5F5628
:100B7000455253494F4E3A312E30204D414348495A
:100B80004E455F545950453A456E6465722D332089
:100B900045585452554445525F434F554E543A318F
:100BA00020555549443A63656465326132662D3497
:100BB0003161322D343734382D396231322D63357D
:100BC000356336326633363766660A002F2F004D9E
:100BD00031343520533C696E6465783E206F7574FE
:100BE000206F662072616E67652028302D31290ADA
:100BF000003F4A206F7574206F662072616E6765D2
:100C00002028302E303120746F20302E33290A00F6
:100C10002058003B200020204D61783A2000200021
:100C200020204D696E3A2000203B200020204D32CC
:100C3000313120530046523A0020466C6F773A20FB
:100C4000003A200020536572766F2000206F757483
:100C5000206F662072616E67650A00536572766F59
:100C6000200064697300656E0043290A0061626CAC
:100C7000656420286D696E2074656D702000436F77
:100C80006C64206578747275646573206172652088
:100C9000004D34323120696E636F72726563742067
:100CA000706172616D657465722075736167650A44
:100CB000004D65736820706F696E74206F757420C5
:100CC0006F662072616E67650A004F6666736574B1
:100CD00073204170706C696564004572723A2054EB
:100CE0006F6F206661722100546F6F206661722001
:100CF00066726F6D207265666572656E63652070E1
:100D00006F696E740A00454550524F4D204F4B0A93
:100D100000290A0020746F20003F5A206F7574204C
:100D20006F662072616E6765202800290A002074B2
:100D30006F20003F59206F7574206F662072616EBE
:100D4000676520282D00290A0020746F20003F5875
:100D5000206F7574206F662072616E676520282D84
:100D6000004D383400446F6E65207072696E74698E
:100D70006E672066696C650A004D3737004D333168
:100D800000496E76616C696420657874727564657B
:100D9000720A0020204D323036205800486F6D65B1
:100DA000206F6666736574004361703A00203B00F3
:100DB00020204D3835312058005A2D50726F626511
:100DC000204F66667365740020573A00436F6F6C5E
:100DD000696E672E2E2E0048656174696E672E2E2F
:100DE0002E0045312025530020573A0042656420EB
:100DF000436F6F6C696E672E2E2E0042656420482B
:100E0000656174696E672E2E2E0023646566696EB7
:100E1000652044454641554C545F004B6420004BCF
:100E20006920004B702000504944204175746F7454
:100E3000756E652066696E697368656421205075FA
:100E40007420746865206C617374204B702C204B87
:100E50006920616E64204B6420636F6E7374616EF1
:100E600074732066726F6D2062656C6F7720696E97
:100E7000746F20436F6E66696775726174696F6E17
:100E80002E680A00504944204175746F74756E6570
:100E9000206661696C6564212074696D656F757485
:100EA0000A00504944204175746F74756E65206660
:100EB00061696C6564212054656D7065726174753B
:100EC000726520746F6F20686967680A0050494432
:100ED000204379636C65730025532025692F2569AC
:100EE00000204B643A2000204B693A2000204B70D0
:100EF0003A200020436C6173736963205049442099
:100F00000A002054753A2000204B753A2000206DCD
:100F100061783A2000206D696E3A200020643A2002
:100F20000020626961733A20005761697420666F1E
:100F30007220686561742075702E2E2E0050494411
:100F4000204175746F74756E652073746172740AD4
:100F500000504944204175746F74756E6520666158
:100F6000696C6564212054656D7065726174757279
:100F70006520746F6F20686967680A0050494420D3
:100F80004175746F74756E650050494420417574E5
:100F90006F74756E65206661696C656421204261BD
:100FA00064206865617465722069640A0045727224
:100FB0003A207574663820666F6E74206E6F7420E8
:100FC000696E697469616C697A65642E0045727234
:100FD0003A207574663820666F6E74206E6F7420C8
:100FE000696E697469616C697A65642E0045727214
:100FF0003A207574663820666F6E74206E6F7420A8
:10100000696E697469616C697A65642E0042656411
:1010100000456E636C6F73757265002568753A25BF
:10102000303268750025303268753A25303268757F
:1010300000253032687527253032687500256875BF
:10104000642025303268753A2530326875002020DA
:101050002020202020002020202000657272001F08
:10106000E020102010201010201020201020103020
:10107000300840048003001FE03FF03FF03FF01FC6
:10108000E01FE03FF03FF03FF00FC0078003003F5C
:10109000FFF038007030FC3020FC10207810203039
:1010A000102C00D02E31D02F7BD02F7BD02E31D0E2
:1010B0002C00D020301020781020FC1030FC30386C
:1010C00000703FFFF03FFFF038007031863023871B
:1010D000102787902F87D02F03D020301020781032
:1010E0002078102030102F03D02F87D0278790230F
:1010F00087103186303800703FFFF01FFFF81FFF68
:10110000F804104002082002082004104008208043
:101110001041001041000820800410400000001F12
:10112000FFF81FFFF8F80180000C48008000124310
:10113000C38CD00271249267CC41249E4002492482
:10114000904012FBB3CEE00C5072696E7420416285
:101150006F72746564004D32350050617573696E4D
:10116000672E2E2E004D323400454550524F4D20F3
:1011700056657273696F6E204572726F72004545D5
:1011800050524F4D20496E646578204572726F72DF
:1011900000454550524F4D20435243204572726FD7
:1011A00072003F0049676E6F726500526573657427
:1011B00000496E697469616C697A652045455052D1
:1011C0004F4D0046696C2E204469612E0045206910
:1011D0006E206D6D5E33004D333033205531204528
:1011E00025692053256900504944204175746F7466
:1011F000756E65202A00200820466163740020086F
:10120000204D6178002008204D696E004F66660011
:101210004F6E004175746F74656D70004D696E207E
:1012200054726176656C2056656C004D696E20566F
:10123000656C6F63697479004D617820452056654F
:101240006C004D6178205A2056656C004D61782005
:10125000592056656C004D617820582056656C0009
:101260004D6178204520416363656C004D617820B5
:101270005A20416363656C004D61782059204163B9
:1012800063656C004D6178205820416363656C0094
:1012900054726176656C20416363656C00526574BD
:1012A0007261637420416363656C00416363656CC4
:1012B0000050726F6265205A204F66667365740035
:1012C00050726F62652059204F66667365740050D6
:1012D000726F62652058204F666673657400452002
:1012E00073746570732F6D6D005A2053746570733D
:1012F0002F6D6D00592053746570732F6D6D0058FC
:101300002053746570732F6D6D00416476616E6358
:1013100065642053657474696E6773003F004361B0
:101320006E63656C00496E6974004D343238004953
:101330006E697469616C697A6520454550524F4DFC
:101340000046696C616D656E740054656D70657200
:1013500061747572650053746570732F6D6D005004
:10136000726F6265204F666673657473004A756EAE
:101370006374696F6E2044657600416363656C65D4
:10138000726174696F6E0056656C6F636974790081
:1013900053657420486F6D65204F6666736574737E
:1013A00000436F6E66696775726174696F6E0000E5
:1013B0000C0F00FE07022503BB017FFE08FE08FE9E
:1013C00005080806000040F0C888889878100508CD
:1013D00008060000C0F88888888888F80505050692
:1013E00000012030F830200508080600002070F8C1
:1013F00020202020E00509090600FF2070A8A8B8D9
:1014000088887020070505070001D86C366CD80560
:1014100009090600FFF8A88888888888A8F8050ABE
:101420000A0600FE205050505088A8A88870030378
:101430000306000340A040FFFFFFFFFFFFFFFFFF89
:10144000FFFFFFFFFFFFFFFFFFFFFFFFFF000000A9
:101450000605FF010707060200808080808000806B
:10146000030303060105A0A0A00506060600005020
:10147000F85050F8500509090600FF2070A8A07028
:1014800028A87020050707060000C8C8102040984B
:101490009805070706000040A0A040A89068010337
:1014A000030602058080800309090601FF204040F1
:1014B0008080804040200309090601FF80404020D1
:1014C000202040408005070706000020A8702070FB
:1014D000A8200505050600012020F82020020303AE
:1014E0000601FFC04080050101060003F802020268
:1014F000060100C0C00507070600000810102040C4
:101500004080050707060000708898A8C888700307
:10151000070706010040C040404040E005070706BD
:101520000000708808102040F8050707060000F842
:10153000081030088870050707060000103050902A
:10154000F81010050707060000F880F008088870FA
:10155000050707060000304080F0888870050707FF
:10156000060000F8081010202020050707060000DC
:101570007088887088887005070706000070888862
:1015800078081060020505060100C0C000C0C00256
:1015900006060601FFC0C000C04080030505060125
:1015A000012040804020050303060002F800F803F4
:1015B0000505060101804020408005070706000060
:1015C000708810202000200507070600007088B8EA
:1015D000A8B88070050707060000708888F888881A
:1015E00088050707060000F04848704848F00507DE
:1015F0000706000070888080808870050707060055
:1016000000F04848484848F0050707060000F88001
:1016100080F08080F8050707060000F88080F080E1
:101620008080050707060000708880809888700514
:101630000707060000888888F88888880307070657
:101640000100E04040404040E00507070600003848
:101650001010101090600507070600008890A0C0C9
:10166000A09088050707060000808080808080F8B1
:1016700005070706000088D8A88888888805070716
:101680000600008888C8A898888805070706000013
:1016900070888888888870050707060000F08888A9
:1016A000F080808005070706000070888888A89071
:1016B00068050707060000F08888F0A090880507F5
:1016C000070600007088807008887005070706000C
:1016D00000F8202020202020050707060000888829
:1016E00088888888700507070600008888888850E1
:1016F000502005070706000088888888A8A850059C
:1017000007070600008888502050888805070706CC
:10171000000088885020202020050707060000F8D8
:101720000810204080F80309090601FFE08080804E
:1017300080808080E0050707060000804040201080
:1017400010080309090601FFE020202020202020A6
:10175000E00503030600052050880501010600FE90
:10176000F803030306010580402005050506000077
:1017700070087888780507070600008080F0888860
:1017800088F0050505060000708080887005070751
:101790000600000808788888887805050506000096
:1017A0007088F08070050707060000304840E04070
:1017B00040400507070600FE708888887808700595
:1017C00007070600008080F08888888803070706DE
:1017D00001004000C0404040E00409090601FE103D
:1017E0000030101010109060050707060000808080
:1017F0008890E09088030707060100C04040404001
:1018000040E0050505060000D0A8A8A8A805050524
:10181000060000B0C88888880505050600007088A5
:101820008888700507070600FEF0888888F08080A9
:101830000507070600FE78888888780808050505EA
:10184000060000B0C880808005050506000078808D
:101850007008F00507070600002020F82020201857
:1018600005050506000088888898680505050600B6
:101870000088888850200505050600008888A8A8EB
:10188000500505050600008850205088050707060A
:1018900000FE88888850204080050505060000F875
:1018A000102040F80309090601FF20404040804015
:1018B0004040200109090602FF80808080808080EE
:1018C00080800309090601FF8040404020404040DD
:1018D0008005030306000248A890FF4142530050D0
:1018E0004C410053746F72652053657474696E6760
:1018F00073004C6F61642053657474696E67730084
:1019000050726F6265205A204F6666736574004698
:1019100061646520486569676874004F6666004FBA
:101920006E00426564204C6576656C696E67004C9C
:101930006576656C20426564004732394E00473257
:1019400039004175746F20486F6D65004D6F746983
:101950006F6E0053572D4D6F64650053746F7700A1
:101960004465706C6F790053656C662D54657374B3
:1019700000526573657400426564004E6F7A7A6C3C
:10198000650046616E20537065656400436F6E6646
:10199000696775726174696F6E00526573746F72F6
:1019A000652044656661756C7473004C6F616420DA
:1019B00053657474696E67730053746F7265205356
:1019C000657474696E677300507265686561742030
:1019D0002420436F6E6600424C546F75636800505C
:1019E000726F6265205A204F6666736574004164A9
:1019F00076616E6365642053657474696E67730005
:101A00004D61696E003F004261636B0053746F70FB
:101A1000004D323200417474616368204D65646921
:101A200061004D3231005072696E742066726F6DC4
:101A3000204D656469610052656C65617365204D78
:101A40006564696100436F6E666967757261746988
:101A50006F6E0054656D7065726174757265004DCE
:101A60006F74696F6E00526573756D652050726991
:101A70006E740054756E650053746F7020507269F7
:101A80006E74005061757365205072696E74004900
:101A90006E666F2053637265656E003F005374611C
:101AA0007274205072696E740043616E63656C00DD
:101AB0005072696E740043616E6E6F7420656E744F
:101AC0006572207375626469723A200002202E2EBE
:101AD000000152656672657368004D61696E002190
:101AE00000486F74656E6420746F6F20636F6C6460
:101AF000004261636B0050726F63656564004D6FF7
:101B000074696F6E0044697361626C65205374651B
:101B10007070657273004D383400426564204C6506
:101B200076656C696E67004175746F20486F6D65EE
:101B300000473238004D61696E005072656865611A
:101B400074202420426564005072656865617420C9
:101B50002420456E640054656D7065726174757201
:101B60006500DF18DB18436F6F6C646F776E005091
:101B700072656865617420240046616E205370654B
:101B8000656400426564004E6F7A7A6C65004D6151
:101B9000696E004261627973746570205A00466C08
:101BA0006F770046616E205370656564004265641E
:101BB000004E6F7A7A6C65005370656564004D6104
:101BC000696E00486F6D696E67204661696C656477
:101BD000006F70656E0054524947474552454400B6
:101BE0003A20007A5F6D696E00795F6D696E0078EA
:101BF0005F6D696E005265706F7274696E67206503
:101C00006E6473746F70207374617475730A00204E
:101C1000746F6F206C6F6E6720657874727573696E
:101C20006F6E2070726576656E7465640A0020635D
:101C30006F6C6420657874727573696F6E20707252
:101C40006576656E7465640A00486F6D652025735E
:101C5000257325732046697273740000000000002C
:101C6000000000000000005761726E696E673A2044
:101C7000486F6D696E672042756D702044697669A2
:101C8000736F72203C20310A0002020400006B4393
:101C900000006B4300007A430000A0400000A04019
:101CA0000000004000006B4300006B4300007A43DB
:101CB0000000000000000000000000005365747484
:101CC000696E67732053746F72656400290A00207F
:101CD00062797465733B206372632000536574748A
:101CE000696E67732053746F7265642028004861C1
:101CF0007264636F6465642044656661756C74200A
:101D000053657474696E6773204C6F616465640A0F
:101D10000020286D6D2900203B204C6576656C699C
:101D20006E67200020204D343230205300417574FE
:101D30006F20426564204C6576656C696E67002093
:101D4000460020420020480020204D3134352053E9
:101D5000004D6174657269616C20686561747570AD
:101D600020706172616D657465727300204A002095
:101D700020473239205720490020204D3134392066
:101D800043203B20556E69747320696E2043656C57
:101D9000736975730A0054656D706572617475724C
:101DA0006520556E697473002020473231203B0056
:101DB0004C696E65617220556E69747300454550BB
:101DC000524F4D206461746173697A652065727247
:101DD0006F722E0A00290A002062797465733B2015
:101DE00063726320002073746F726564207365747E
:101DF00074696E67732072657472696576656420B4
:101E00002800202863616C63756C61746564292106
:101E10000A0020213D2000454550524F4D2043529D
:101E200043206D69736D61746368202D202873747D
:101E30006F7265642920002053697A653A20004951
:101E40006E6465783A20000000FA430000FA43000F
:101E500000A0400000C8410000A0420000A04200D5
:101E600000C8430000BA42F4010000F4010000641D
:101E700000000088130000204D61726C696E3D56B1
:101E80003836290A00454550524F4D207665727309
:101E9000696F6E206D69736D6174636820284545B4
:101EA00050524F4D3D0024F4D43050C38E20C2A276
:101EB0004017828B7011127A910D816CD90AA8613A
:101EC000E108C7586607615143061E4B5D05C145D1
:101ED000A7041A411104093D9803713931034036B2
:101EE000DB0265339102D4305402802E1D02632C34
:101EF000EE01752AC501B028A001102781018F25A8
:101F000064012B244B01E0223401AC211F018D2000
:101F10000D01801FFC00841EED00971DDF00B81C22
:101F2000D200E61BC600201BBC00641AB200B21926
:101F3000A8000A19A0006A189900D117910040174B
:101F40008B00B516840031167E00B31579003A1562
:101F50007300C7146F0058146A00EE1366008813EC
:101F6000630025135E00C7125B006C125700151248
:101F70005400C111510070114F0021114B00D610B7
:101F800049008D1047004610440002104200C00F67
:101F90004000800F3E00420F3C00060F3B00CB0E7E
:101FA0003800930E37005C0E3500270E3400F30D19
:101FB0003200C10D3100900D3000600D2E00320D49
:101FC0002D00050D2C00D90C2B00AE0C2900850C22
:101FD00029005C0C2700350C27000E0C2600E80BAE
:101FE0002400C40B2400A00B23007D0B23005A0BFC
:101FF0002100390B2100180B2000F80A1F00D90A14
:102000001E00BB0A1E009D0A1D00800A1D00630AF7
:102010001C00470A1B002C0A1B00110A1A00F709B2
:102020001A00DD091900C4091900AB091900920949
:1020300017007B091800630917004C0916003609C0
:102040001600200916000A091500F5081500E00819
:102050001400CC081400B8081400A4081400900858
:1020600013007D0812006B08130058081200460880
:102070001200340811002308110012081100010891
:102080001100F0071000E0071000D0071000C00793
:102090001000B0070F00A107100091070E00830782
:1020A0000F0074070F0065070E0057070E00490761
:1020B0000E003B070D002E070E0020070D00130732
:1020C0000D0006070D00F9060C00ED060D00E006F8
:1020D0000C00D4060C00C8060C00BC060C00B006B0
:1020E0000C00A4060B0099060C008D060B0082065E
:1020F0000B0077060B006C060B0061060A00570602
:102100000B004C060A0042060A0038060A002E069A
:102110000A0024060A001A060A001006090007062B
:102120000A00FD050900F4050900EB050900E205B8
:102130000900D9050900D0050900C7050900BE0539
:102140000900B5050800AD050800A50509009C05B6
:102150000800940508008C050800840508007C052B
:102160000800740508006C050700650508005D059A
:102170000700560508004E05070047050700400503
:10218000080038050700310507002A050700230568
:1021900007001C050600160507000F0507000805C7
:1021A000060002050700FB040600F5040700EE0424
:1021B0000600E8040600E2040700DB040600D5047C
:1021C0000600CF040600C9040600C3040600BD04CF
:1021D0000600B7040600B1040500AC040600A6041E
:1021E0000600A00405009B04060095040500900469
:1021F00006008A04050085040500800406007A04B0
:10220000050075040500700405006B0405006604F4
:102210000500610405005C04050057040500520434
:1022200005004D04050048040500430405003E0474
:1022300004003A04050035040500300404002C04B1
:10224000050027040400230405001E0404001A04EA
:10225000040016040500110404000D040400090420
:1022600005000404040000040400FC030400F80357
:102270000400F4030400F0030400EC030400E8038A
:102280000400E4030400E0030400DC030400D803BA
:102290000400D4030400D0030400CC030400C803EA
:1022A0000300C503030024F404D9201BC40C5C0EF6
:1022B0009804C4095F0265077101F405F900FB0485
:1022C000B30048048700C1036900580355000303A5
:1022D0004500BE023A008402310053022A0029025E
:1022E000250004022000E4011C00C8011900AF0110
:1022F000170098011400840113007101100061019E
:10230000100051010E0043010D0036010B002B019E
:102310000B0020010B00150109000C01090003014D
:102320000800FB000800F3000800EB000700E400D1
:102330000600DE000600D8000600D2000600CC0031
:102340000500C7000500C2000500BD000400B9007B
:102350000400B5000400B1000400AD000400A900B1
:102360000400A5000300A20003009F0004009B00DE
:102370000300980003009500020093000300900002
:1023800003008D0002008B0003008800020086001D
:10239000020084000300810002007F0002007D0033
:1023A00002007B0002007900020077000100760045
:1023B00002007400020072000100710002006F0050
:1023C00002006D0001006C0002006A00010069005B
:1023D0000200670001006600010065000100640062
:1023E00002006200010061000100600001005F0066
:1023F00002005D0001005C0001005B0001005A006A
:10240000010059000100580001005700010056006A
:10241000010055000100540001005300000053006A
:1024200001005200010051000100500001004F0066
:1024300001004E0000004E0001004D0001004C0064
:1024400001004B0000004B0001004A000100490060
:10245000010048000000480001004700010046005C
:102460000000460001004500000045000100440056
:102470000100430000004300010042000000420050
:1024800001004100000041000100400001003F0048
:1024900000003F0001003E0000003E0001003D0042
:1024A00000003D0001003C0000003C0000003C003A
:1024B00001003B0000003B0001003A0000003A0030
:1024C0000100390000003900010038000000380028
:1024D000000038000100370000003700010036001E
:1024E0000000360000003600010035000000350015
:1024F000000035000100340000003400000034000A
:1025000001003300000033000000330001003200FE
:1025100000003200000032000100310000003100F4
:1025200000003100010030000000300000003000E9
:1025300001002F0000002F0000002F0000002F00DE
:1025400001002E0000002E0000002E0001002D00D2
:1025500000002D0000002D0000002D0001002C00C7
:1025600000002C0000002C0000002C0001002B00BB
:1025700000002B0000002B0000002B0001002A00AF
:1025800000002A0000002A0000002A0001002900A3
:102590000000290000002900000029000000290097
:1025A000010028000000280000002800000028008A
:1025B000000028000100270000002700000027007D
:1025C0000000270000002700010026000000260070
:1025D0000000260000002600000026000100250063
:1025E0000000250000002500000025000000250057
:1025F0000000250001002400000024000000240049
:10260000000024000000240001002300000023003B
:10261000000023000000230000002300000023002E
:102620000000230001002200000022000000220020
:102630000000220000002200000022000100210012
:102640000000210000002100000021000000210006
:1026500000002100000021000100200000002000F7
:1026600000002000000020000000200000002000EA
:10267000000020000000200001001F0000001F00DB
:1026800000001F0000001F0000001F0000001F00CE
:1026900000001F0001001E0000001E0000001E00C0
:1026A00000001E000000043700001E290000511B1E
:1026B00000005810000010090000CC04000078024F
:1026C00000004101000020436F756E7420583A00ED
:1026D000426564004531004500626564002C20734A
:1026E000797374656D2073746F7070656421204810
:1026F00065617465725F49443A2000486561746998
:102700006E67204661696C65640048656174696E36
:1027100067206661696C6564004572723A204D41BC
:102720005854454D50004D415854454D50207472F9
:1027300069676765726564004572723A204D494E5B
:1027400054454D50004D494E54454D5020747269CA
:1027500067676572656400544845524D414C20528C
:10276000554E4157415900546865726D616C205255
:10277000756E6177617900202F002042403A002079
:10278000403A0043616E6E6F74206F70656E207307
:102790007562646972200053442063617264206F23
:1027A0006B0A006F70656E526F6F74206661696CA2
:1027B00065640A00766F6C756D652E696E697420AC
:1027C0006661696C65640A004E6F20534420636142
:1027D00072640A000A4D3234004D323320257300F2
:1027E0002E0A006F70656E206661696C65642C202E
:1027F00046696C653A200046696C652073656C65B6
:10280000637465640A002053697A653A200046695A
:102810006C65206F70656E65643A2000454E4420FB
:10282000535542524F5554494E450A002220706F6D
:1028300073002220706172656E743A220053554213
:10284000524F5554494E452043414C4C20746172BF
:102850006765743A220053756263616C6C204F7631
:102860006572666C6F7700457863656564656420A2
:102870006D617820535542524F5554494E4520645E
:10288000657074683A00667265736800646F696E9B
:1028900067002066696C653A20004E6F7720002F34
:1028A0006175746F25632E67006D61726C696E6669
:1028B000772E6F726700322E302E392E33001FFFB5
:1028C000FFFFFFFFFF600000000001FF400000006D
:1028D0000000FF8000000000007F83CF00000C306C
:1028E0003F87FF80000C301F867980000C000F8C22
:1028F00030C7838C30E78C30CFC7CC31F38C30DCE1
:10290000ECEC33B98C30D86C6C33198C30D06C0C47
:1029100033198C30D86C0C33198C30DC6C0E3B19AD
:102920008C30CF7C079F198C30C77C038F194000F7
:102930000000000002600000000000061FFFFFFF13
:10294000FFFFF870012C0190012701B0012201C0A6
:10295000011D01F00118011002130130020E016087
:1029600002090190020401C002FF000003FA0040C6
:1029700003F5008003F000D003EB002004E60070B4
:1029800004E100E004DC004005D700C005D20040AF
:1029900006CD00D006C8008007C3003008BE00F096
:1029A00008B900C009B400B00AAF00B00BAA00D04B
:1029B0000CA500000EA000500F9B00C01096005008
:1029C00012910000148C00C0158700B0178200B06F
:1029D000197D00D01B7800001E730040206E00900F
:1029E000226900F024640040275F0090295A00E02B
:1029F0002B5500102E500020304B0010324600E0C6
:102A000033410090353C001037370070383200A059
:102A1000392D00B03A2800A03B2300603C1E001076
:102A20003D1900903D1400103E0F00703E0A00C09A
:102A30003E0500003F0000403FFBFF803FF6FFC027
:102A40003FF1FF2020506C616E6E657242756666C4
:102A5000657242797465733A20002046726565207C
:102A60004D656D6F72793A200020436F6D70696C0F
:102A700065643A204D617920313220323032320A99
:102A800000204C61737420557064617465643A2051
:102A9000323032312D31322D3235207C2041757467
:102AA000686F723A20287468697369736B6569741A
:102AB00068622C20456E6465722D33290A004D61D1
:102AC000726C696E20322E302E392E330A0020535C
:102AD0006F6674776172652052657365740A0020B1
:102AE0005761746368646F672052657365740A0088
:102AF0002042726F776E206F757420526573657413
:102B00000A002045787465726E616C2052657365A9
:102B1000740A00506F77657255700A0073746172A1
:102B2000740A004732385859004D31303031006F47
:102B30006B006572726F722077726974696E6720BC
:102B4000746F2066696C650A00446F6E652073615E
:102B500076696E672066696C652E0A004D32390011
:102B6000456E6473746F70730025532025632025B0
:102B70006320256320256300205A3A0020593A003B
:102B800020583A00656E6473746F707320686974BE
:102B90003A2000000000010200090A0000000004C1
:102BA0000308070000000000000000000000000013
:102BB000000000004D6F76652025736D6D004D6F30
:102BC000766520302E316D6D004D6F766520316D4C
:102BD0006D004D6F76652031306D6D004D6F7665FF
:102BE0002041786973004D6F766520457874727561
:102BF000646572004D6F7665205A004D6F766520D2
:102C000059004D6F76652058005072696E742066C9
:102C1000726F6D204D6564696100FFFFFF50726F38
:102C200062696E67204661696C65640A0050726F64
:102C300062696E67204661696C656400205A3A20BB
:102C40000020593A200042656420583A2000456E21
:102C50006465722D332052656164792E005072696B
:102C60006E74696E672E2E2E005072696E7420503D
:102C7000617573656400220A00556E6B6E6F776E26
:102C800020636F6D6D616E643A2022002045002044
:102C90005A0020590020204D3932205800537465C5
:102CA00070732070657220756E697400DB0FC93F08
:102CB00045BCDA3F8FB30240FCF027405694614098
:102CC000FE4B9B4084A5D840E0231841346A56410E
:102CD000E859974164DBD5416E271742B4B7554296
:102CE000CE1A9742C8AED542B5885A43D40684BF9F
:102CF000A65FA7BF7443E0BF10B11AC01C2C58C018
:102D0000E8F697C0B849D6C04E4E17C124D355C176
:102D1000802497C1A0B5D5C1121A17C244AE55C2BE
:102D2000781797C26CACD5C267885AC320746F6F8E
:102D3000206C6F6E6720657874727573696F6E2092
:102D400070726576656E7465640A0020636F6C64EA
:102D500020657874727573696F6E20707265766520
:102D60006E7465640A006F6B0A00526573656E6469
:102D70003A20007C3C3E5E2B3D3F2F5B5D3B2C2A86
:102D8000225C0020453A00205A3A0020593A005867
:102D90003A0000002200250028002B00000021003E
:102DA000240027002A000202020202020202040496
:102DB00004040404040403030303030303030101E1
:102DC00001010101010101020408102040800102FB
:102DD0000408102040800102040810204080804038
:102DE0002010080402014572726F722077726974B4
:102DF000696E6720746F20454550524F4D210A007F
:102E000012E3D0E811241FBECFEFD0E4DEBFCDBF68
:102E100084B78093071414BE0FB6F894A8958091D8
:102E20006000886180936000109260000FBE12E025
:102E3000A0E0B1E0E8EDFDEE01E00BBF02C00790BD
:102E40000D92AA35B107D9F724E1AAE5B2E001C095
:102E50001D92A730B207E1F717E1C1E0D7E104C046
:102E60002197FE010E9435F4C030D107C9F70E94B6
:102E7000DAE30C94E0F60C940000CF93DF93EC01BE
:102E8000CB01BA010E9470ED20E030E040E251E455
:102E90000E94FFF4688379838A839B83DF91CF91BB
:102EA0000895CF93DF93EC01CB01BA010E9470ED3E
:102EB0002AE037ED43E25DE30E94FFF40E946CF5E7
:102EC000688379838A839B83DF91CF910895CF9321
:102ED000DF93EC01CB01BA010E9470ED2AE037EDDF
:102EE00043E25DE30E94FFF4688379838A839B83D6
:102EF000DF91CF910895CF93DF93EC01CB01BA011D
:102F00000E9470ED688379838A839B83DF91CF91E0
:102F10000895CF93DF93EC01CB01BA010E9470EDCD
:102F200020E030E048EC52E40E94FFF468837983AB
:102F30008A839B83DF91CF910895CF93DF93EC0138
:102F4000CB01BA010E9470ED0E9467F57983688316
:102F5000DF91CF910895CF93DF93EC01CB01BA01BC
:102F60000E9470ED20E030E04AE754E40E94FFF454
:102F7000688379838A839B83DF91CF910895FC01D5
:102F800084910895FC0180810895FC01A081B181A4
:102F90001C92A281B3818C918F5F8C930280F3810C
:102FA000E02D90818CE0989F800D1124E4E1F0E108
:102FB00013AE84AF0895119800C087FD43C04198B7
:102FC00000C0119A00C000C0119800C086FD46C024
:102FD000419800C0119A00C000C0119800C085FD42
:102FE0003BC0419800C0119A00C000C0119800C0B9
:102FF00084FD30C0419800C0119A00C000C01198F3
:1030000000C083FD25C0419800C0119A00C000C0D7
:10301000119800C082FD1AC0419800C0119A00C0EA
:1030200000C0119800C081FD0FC0419800C0119AE6
:1030300000C000C0119800C0419800C0119A00C0A3
:1030400000C00895419ABCCF419AF0CF419AE5CF94
:10305000419ADACF419ACFCF419AC4CF419AB9CFA2
:1030600090E080E00895CF93DF93DB01F9019C911C
:103070009130C1F0943080F094509C938830D1F41A
:1030800080819181009771F0019791838083480F2F
:10309000591FEA01188206C08C3539F49C5F9C9355
:1030A000943041F4DF91CF9108958B3339F781E06B
:1030B0008C93F8CF20813181B9016F5F7F4F71838D
:1030C0006083420F531FEA018883808191818F358D
:1030D00091056CF7E7CF0F931F9381E00091671183
:1030E000109168112091691130916A11409163111A
:1030F0005091641160916511709166110417150764
:103100002607370708F480E01F910F91089590E09B
:1031100080E008952091AB03833021F425FD0CC09D
:1031200024FD0CC030E0A90102C0559547958A9551
:10313000E2F7CA018170089581E0089580E0089562
:103140008091C70384FD0BC08091C90387FD07C030
:103150009091CA03937081E019F480E0089581E0B2
:1031600008952FEB280F2A3108F047C0E22FF0E036
:103170008091C7039091C803A091C903B091CA037D
:1031800004C0B695A795979587952A95D2F780FDA7
:1031900002C081700895E355FC4FE081EE2341F1B8
:1031A00080910D0790910E07E80FF92FF11D808196
:1031B00090ED980F9A3030F08E3251F48181805327
:1031C0008A3098F4F093A103E093A00381E008957E
:1031D0008D3211F08B3249F4818190ED980F9A3045
:1031E00088F38E3211F48281EACFF0E0E0E0EACF9A
:1031F0001092A1031092A003E9CF80E00895CF932D
:10320000DF9385E4AEDF882309F188E04091C703AE
:103210005091C8036091C9037091CA03972F9170B0
:10322000C92F90E0D92FCC0FDD1F71FB222720F989
:1032300030E0220F331F220F331FC22B67FB4427BE
:1032400040F9C42B8C2BDF91CF91089580E0DECF25
:1032500088DF882341F081E02091A0033091A10311
:10326000232B09F480E00895A0E1B0E0EAE3F9E15E
:103270000C9450F4F82EE62EB42E122F282F30E0A6
:103280003E872D87262E312C05E0029FA001039F4B
:10329000500D11245A834983FA01E20DF31DEE0FFC
:1032A000FF1FEE0FFF1FE456FB4F6081718182818B
:1032B00093819B01AC010E9462F6882309F40DC141
:1032C0004B2D4F0D612F6E0D049FF0011124DF0176
:1032D000A20DB31DAA0FBB1FAA0FBB1FA456BB4F45
:1032E000CD90DD90ED90FC904B0D049FA00111243A
:1032F000DA01A20DB31DAA0FBB1FAA0FBB1FA45654
:10330000BB4F8D909D90AD90BC90862F90E0A98191
:10331000BA81A80FB91FAA0FBB1FAA0FBB1FA456C3
:10332000BB4F4D905D906D907C90610F70E0098176
:103330001A81060F171F000F111F000F111F0456CF
:103340001B4FD8010D911D912D913C9109831A833A
:103350002B833C83E80FF91FEE0FFF1FEE0FFF1FBB
:10336000E456FB4F00811181228133810D831E833E
:103370002F833887FA01E60FF71FEE0FFF1FEE0FBE
:10338000FF1FE456FB4F2081318142815381298701
:103390003A874B875C87A5019401C501B4010E945F
:1033A00062F6882319F0812C912C5401A701960113
:1033B000C701B6010E9462F6882311F0750164010D
:1033C00029813A814B815C81CA01B9010E9462F670
:1033D000882321F019821A821B821C82A301920188
:1033E000C301B2010E9462F6882321F049805A800D
:1033F0006B807C8029853A854B855C85CA01B90143
:103400000E9462F6882321F019861A861B861C8684
:103410002D813E814F815885CA01B9010E9462F613
:10342000882341F089859A85AB85BC858D839E83F1
:10343000AF83B88785E00D851E85809FD001819F71
:10344000B00D1124A20DB31DAA0FBB1FAA0FBB1FE5
:10345000A456BB4FBE87AD87A7019601C701B60131
:103460000E9488F4A50194010E9487F46B017C01FD
:10347000A3019201C301B2010E9488F429813A811B
:103480004B815C810E9487F49B01AC01C701B601AE
:103490000E9488F46B017C012D813E814F8158850B
:1034A000CA01B9010E9488F429853A854B855C855B
:1034B0000E9487F49B01AC01C701B6010E9488F409
:1034C00020E030E040E450E40E94FFF4AD85BE858A
:1034D0006D937D938D939C9313976096E2E10C948A
:1034E0006CF40E9470ED20E030E040E251E40E9474
:1034F000FFF40C9471A90E9470ED20E030E040E2EE
:1035000051E40E94FFF40C94F0A80E9470ED2AE0B0
:1035100037ED43E25DE30E94FFF40C94DAA80E94C9
:1035200070ED2AE037ED43E25DE30E94FFF40C9476
:1035300038AA0E9470ED0C9438AA0E9470ED20E029
:1035400030E048EC52E40E94FFF40C9487A70E94FC
:1035500070ED0E9467F5CB010C94799E0E9470ED8E
:1035600020E030E04AE754E40E94FFF40C946BAA98
:103570000C948E870C948E870C948E870C948E8777
:103580000C944A870C944A870C944A870C944A8777
:1035900080916C01882341F060915E0470915F041A
:1035A00041E081E00C9403D00895CF93DF93C09164
:1035B000BF06D091C006209729F16091BB0670919B
:1035C000BC068091BD069091BE060E9467F56E5FB5
:1035D0007F4F24976C177D07ACF4709313056093AD
:1035E00012050E9462D4605A75418F4F9F4F6093BD
:1035F0001405709315058093160590931705DF91B8
:10360000CF91089510921405109215051092160589
:1036100010921705F4CFB0E0A0E0E1E1FBE10C94DB
:1036200059F46B01E9014A3009F4D5C0453109F07C
:1036300081C0DB011296ED91FC91F2809681878129
:10364000139A00C00000E6E2F0E03197F0F7092F8E
:10365000182FEF2CE29420EFE22230E1B32EBF0CC2
:10366000E80188EFA8DC00C0000086E290E0019746
:10367000F0F7BFE1BF1508F49BC08F2D80778068FD
:103680009ADC8E2D98DC00C0000086E290E0019765
:10369000F0F780E890DC80E08EDC00C0000086E27D
:1036A00090E00197F0F78AEF86DC00C0000086E228
:1036B00090E00197F0F7005F1F4F8881807F7BDCEF
:1036C00089918295807F77DCC017D107B1F700C060
:1036D000000086E290E00197F0F7F394E0E1EE0E4F
:1036E000FB10BECF1398D6011296ED91FC9180810C
:1036F0009281980F92832181921708F09FC1948143
:103700009F5F94839381890F821710F08FEF820F50
:103710008383458150E0440F551F70E060E086814F
:1037200097810E948CF681E0CDB7DEB7E9E00C947A
:1037300075F4DEC1FB0102811381423309F485C1B6
:1037400008F48DC1463409F475C1473409F482C1C7
:103750004B3349F789812B81D80112967C911297BE
:1037600013963C91213009F4BFC1233009F0A0C168
:1037700048EF480F582F91E0341708F490E031E0FB
:10378000541708F030E0492F432B61E0571708F435
:1037900060E0462311F4932331F2FA8030E0F9011E
:1037A000E657FE4FD0802A573E4FF901E08099C17D
:1037B00080EE8F0D8068807FFEDB8F2D8295807F6D
:1037C000FADB00C0000086E290E00197F0F780E8A5
:1037D000F2DB80E861CF0B9A1398399A4198099AE5
:1037E000119A139A00C0000086E290E00197F0F76A
:1037F00088E790E0CEE9DFE0FE013197F1F701972D
:10380000D9F788EFD8DB00C0000086E290E001978E
:10381000F0F780E2D0DB80E0CEDB00C0000086E283
:1038200090E00197F0F780E0C6DB80E8C4DB00C0E1
:10383000000086E290E00197F0F780E0BCDB80E1D9
:10384000BADB00C0000086E290E00197F0F7CE01FD
:103850000197F1F7CE010197F1F7CE010197F1F74A
:10386000CE010197F1F7CE010197F1F7CE01019753
:10387000F1F7CE010197F1F7CE010197F1F7CE01F3
:103880000197F1F7CE010197F1F7CE010197F1F71A
:10389000CE010197F1F7CE010197F1F7CE01019723
:1038A000F1F72197F1F780E286DB80E484DB00C04A
:1038B000000086E290E00197F0F780E27CDB80E692
:1038C0007ADB00C0000086E290E00197F0F7D0E0DC
:1038D000C0E08C2F807780686EDB8D2F6CDB00C0A2
:1038E000000086E290E00197F0F780E864DB80E07A
:1038F00062DB00C0000086E290E00197F0F78AEFFB
:103900005ADB00C0000086E290E00197F0F780E209
:10391000119800C0419800C0119A00C000C01198D1
:1039200000C0419800C0119A00C000C0119800C0AA
:10393000419800C0119A00C000C0119800C0419881
:1039400000C0119A00C000C0119800C0419800C08A
:10395000119A00C000C0119800C0419800C0119A8F
:1039600000C000C0119800C0419800C0119A00C06A
:1039700000C0119800C0419800C0119A00C000C05A
:10398000119800C0419800C0119A00C000C0119861
:1039900000C0419800C0119A00C000C0119800C03A
:1039A000419800C0119A00C000C0119800C0419811
:1039B00000C0119A00C000C0119800C0419800C01A
:1039C000119A00C000C0119800C0419800C0119A1F
:1039D00000C000C0119800C0419800C0119A00C0FA
:1039E00000C0119800C0419800C0119A00C000C0EA
:1039F00000C00000E6E2F0E03197F0F7815009F0F6
:103A000087CF88EFD8DA00C0000086E290E0019707
:103A1000F0F7CF5FD05FC03209F05BCF80E0CBDA48
:103A200080ECC9DA00C0000086E290E00197F0F770
:103A3000139879CEF8018581888375CE80E0CDB763
:103A4000DEB7E9E00C9475F453C0B901C8010E94D7
:103A5000B8D469CED80111968C91888364CE443154
:103A600091F0473109F05FCE1882D80112968C91FF
:103A70001297898315968C91159781508A83139696
:103A80008C918B8350CED80115964C91159750E0B0
:103A9000440F551F70E060E016968D919C910E9436
:103AA0008CF6F801128280818150838314823BCE90
:103AB000381708F438CE871708F435CEFA80E12C91
:103AC000D12C243070F46ACEBE01C8010E94B8D453
:103AD000898198819D0D98838E0D8983FF0C09F44F
:103AE00022CEF7FEF6CFF0CF58E0580F482F43CE46
:103AF000EF92FF920F931F93CF93DF93EC018B0113
:103B00007A018A859B858617970731F0888199818C
:103B10000E94A5D61B870A87B701888199810E94D8
:103B200007D12E813F81820F932F911D9F838E831A
:103B300090E080E0CDB7DEB7E6E00C9478F4B0E03A
:103B4000A0E0E5EAFDE10C9458F4EC017B018A0168
:103B50008A859B858617970731F0888199810E9415
:103B6000A5D6FB86EA8688859985019609F5CC80DD
:103B7000DA808E81D80EA880B980D5015596ED9156
:103B8000FC91C5010995C80E780110E0F70121915B
:103B90007F0121111FC08E819F81810F911D9F8305
:103BA0008E8390E080E0CDB7DEB7EAE00C9474F449
:103BB000EE80FF80B801888199810E9407D18E0D27
:103BC0009F2D911D288539852817390780F681E0BA
:103BD00090E0E9CF4C2D6D2DC5010E94FDD6D80E89
:103BE000180FD4CFB0E0A0E0E8EFFDE10C945BF457
:103BF000EC01D62E1CAD0BAD7C0184E0E80EF11C6F
:103C0000E98DFA8DC7010995412F480F2D2D602FA1
:103C1000C7010E94FDD69BAD890F8BAF81E090E07C
:103C2000CDB7DEB7E7E00C9477F48091A0039091D4
:103C3000A103009731F04AE050E070E060E00C949E
:103C40008BEB60E070E0CB0108958091A003909130
:103C5000A103009731F04AE050E070E060E00C947E
:103C60005EEA60E070E0CB010895EFDF97FD0AC0E7
:103C7000ECDF6F3F71058105910509F02CF4E5DF5C
:103C8000862F089580E008958FEF0895CF93C62F73
:103C9000DFDA882311F0E9DFC82F8C2FCF91089548
:103CA0008091A0039091A103892B39F0DEDF91E090
:103CB000811101C090E0892F089591E0FCCFCF934E
:103CC000DF93C82FD62FC4DA882321F0E9DFDF91F4
:103CD000CF9108958C2F45DA8111F9CF8D2FF7CF31
:103CE000B4DFCB010895CF93DF93EB01B1DA8823E2
:103CF00011F0F6DFEC01CE01DF91CF9108950F9323
:103D00001F93CF938091A0039091A1030097D9F0C6
:103D1000FC018F01C1912C2F2F7D81F0C53411F052
:103D2000C536B9F7F801108270E060E00E9408E93A
:103D3000F801C083CF911F910F91089570E060E06A
:103D40000E9408E9F7CF60E070E0CB01F3CFCF929B
:103D5000DF92EF92FF926A017B017ADA882319F0F1
:103D6000CEDF6B017C01C701B601FF90EF90DF90C1
:103D7000CF900895B0E0A0E0E0ECFEE10C9460F498
:103D800020E24F8158856E818D810E9463D0E2E0F0
:103D90000C947CF44FE350E0BC0185E796E00C9472
:103DA000C6F68091001090910110891B8F7089F4E4
:103DB00080910B07813069F090916B1192FB8827FD
:103DC00080F992FF07C097FB882780F991E0892747
:103DD000089581E008958F929F92AF92BF92EF92E3
:103DE000FF920F931F93CF93DF93EC018B01E42E8F
:103DF000F22E80911210909113108C179D07C9F12B
:103E000025EACB33D20709F03FC08B519C4371F4B4
:103E10000E9462D46E517B4F8F4F9F4F60935A0424
:103E200070935B0480935C0490935D04D0931310B3
:103E3000C093121030E020E00093E0061093E106FA
:103E40002093E2063093E306E092D906F092DA0678
:103E5000CB51DC4321F4109264041092590482E0A7
:103E600080936C0181E08093F006109261041092BF
:103E70006004DF91CF911F910F91FF90EF90BF9061
:103E8000AF909F908F9008952CE3CB31D20771F6BD
:103E90008B53954AD1F40E9462D480905A0490903A
:103EA0005B04A0905C04B0905D04681979098A09EC
:103EB0009B0997FF0AC08091FC068770873029F420
:103EC00070DFCEE1D5E78111B1CFCBE1DCE3AECF3E
:103ED00020E040E070E060E08BE19CE37CCF0E945A
:103EE000729A0E943C84882319F080E00E944F83DC
:103EF000EFCF8AE293E19093740680937306E8CF44
:103F0000AEE1B0E0E6E8FFE10C945EF48091F906E2
:103F1000282F082E000C330BF901EE0FFF1FE85D70
:103F2000FE4F91819F9390819F933F938F9387ED55
:103F300091E19F938F938E010F5F1F4F1F930F93FC
:103F40000E9403EDC80126DFC3DF0FB6F894DEBF81
:103F50000FBECDBF6E96E4E00C947AF4CF93DF935E
:103F6000C0915904CC23B1F0C150C093590489E0E9
:103F7000C89FE0011124CD5DDB4F6A817B812F81D9
:103F80004E818881998127DF888580936404DF9141
:103F9000CF9108959DDFFBCFE0915904E63028F5DD
:103FA00081E08E0F809359044091E0065091E10624
:103FB0006091E2067091E3062091D9069091DA06AD
:103FC0008091640439E0E39FF0011124ED5DFB4F23
:103FD000A0911210B0911310B183A0834283538338
:103FE0006483758326839783808708958093D5069D
:103FF00020E040E070E060E086E794E2ECCE0C94D4
:104000003C840C94A4AE0C94729AB0E0A0E0EBE077
:10401000F0E20C9460F48D8190913F0F891778F055
:1040200080933F0F9E01285F3F4F4E815F8164E583
:1040300070E08AEE9EE00E9432ED1092E90EE2E01E
:104040000C947CF40F931F93CF93DF938C016F3FFD
:1040500019F410923F0F60E020913F0F862F062E3B
:10406000000C990B2817190609F004F560933F0F0F
:10407000C8010E94B9EC800F911FEC01C01BD10B4D
:10408000C535D1053CF00197FC012491207C2038F6
:10409000D1F3F3CFDD27AE01B8018AEE9EE00E9496
:1040A000DAECC651D14F18821092E90EDF91CF9110
:1040B0001F910F910895CF9380911B04811109C026
:1040C0008AE591E190935F0480935E0481E08093A0
:1040D0001B0462DF20E040E070E060E088EC9AE1E1
:1040E0007ADEC1E0C09364040E94B2871092640437
:1040F00035DFC093640460E089E69CE2A3DF86E5D7
:1041000091E19093740680937306CF9108950F9375
:104110001F930E9462D400911604109117042091FD
:10412000180430911904601B710B820B930B97FDDF
:104130000CC089B183FB882780F991E089274A9BCD
:104140008260309B84608093150480911504817097
:104150009091150491FD826090911404981749F094
:10416000813009F148F0823079F0833091F080930A
:1041700014041F910F910895913079F09230B9F79E
:104180009091130491500CC0992339F09330C1F3EE
:10419000EECF9130A9F3923051F7909113049F5FC5
:1041A00090931304E4CF992359F3933001F7F5CF9B
:1041B000CF92DF92EF92FF92CF93C82F0E9462D4EA
:1041C0006B017C0124EA30E74DE75FE36091320147
:1041D0007091330180913401909135010E946AED14
:1041E00087FD18C08AEF90E0A0E0B0E08C0D9D1D27
:1041F000AE1DBF1D8093030490930404A093050497
:10420000B0930604C0932701CF91FF90EF90DF9009
:10421000CF90089580E090E0DC01E8CFCF938091CB
:10422000D703811154C010924F1010925010109269
:10423000511010921D1010921C1010921F1010920D
:104240001E101092211081E08093201082E2809352
:1042500022101092271010922610EBE3F0E129E4CF
:1042600030E18FEF81932E173F07E1F7C1E0C09354
:1042700038102DEA35EB30932E1020932D10C0937B
:104280002F10109230101092311090E49093321051
:10429000109233102CEA35EB30934A1020934910DA
:1042A0002FE131E030931B1020931A109EE1909380
:1042B0003F1091E1909340109CE190933D108093CA
:1042C0003C1080933B100E94F7D4C093D70381E049
:1042D0008093D6038BE190E190935F0F80935E0F04
:1042E0001092610F1092600F53985B9A52985A9AED
:1042F0003898409A0CDF10921304CF910895FC0176
:1043000080E0309749F09491992331F0907C903877
:1043100009F08F5F3196F7CF0895009751F0FC01B7
:1043200080E09191992331F0907C9038D1F38F5FA8
:10433000F8CF80E00895B0E0A0E0E1EAF1E20C946B
:1043400058F4EC015B018A01FB01099587FD10C05F
:10435000C82ED12CF12CE12C2196F801C082D182FB
:10436000E282F382CE01CDB7DEB7EAE00C9474F4BA
:10437000982F907E903CA9F48F7190E0B0E0A0E07F
:104380006C017D0156E0CC0CDD1CEE1CFF1C5A9527
:10439000D1F7CE010196F50109958F73C82A2296AF
:1043A000DCCF982F907F903E11F58F7090E0B0E0B9
:1043B000A0E06C017D0136E0CC0CDD1CEE1CFF1C86
:1043C0003A95D1F7CE010196F50109958F73C82A68
:1043D00046E0CC0CDD1CEE1CFF1C4A95D1F7CE014B
:1043E0000296F50109958F73C82A2396B6CF982FA8
:1043F000987F903F79F5877090E0B0E0A0E06C0185
:104400007D0186E0CC0CDD1CEE1CFF1C8A95D1F7EB
:10441000CE010196F50109958F73C82A96E0CC0C60
:10442000DD1CEE1CFF1C9A95D1F7CE010296F5011A
:1044300009958F73C82A26E0CC0CDD1CEE1CFF1CEE
:104440002A95D1F7CE010396F50109958F73C82AF5
:10445000249683CF982F907C903841F4807C8038CC
:1044600069F42196CE01F5010995F8CF8E7F8D3F35
:1044700028F02196CE01F5010995F8CFC12CD12C59
:1044800076016BCF9CE0899F802D112491E0980FDD
:104490009093D5032CE0280F2093F80630E02E5F90
:1044A0003F4F40914C104217130619F014F080E072
:1044B000089520914E109217D0F7662341F08E5F39
:1044C0000E94DCD58091F8068E5F0E94DCD5809139
:1044D000F80690914C10891750F320914E1090914E
:1044E000D503291720F310924F108093501081E0CC
:1044F00008952091D403022E000C330B821713066B
:1045000041F08093D4036FEA73E188E190E10C9469
:10451000A5D60895ACE0B0E0E0E9F2E20C945AF4DC
:104520006F3F71058105910509F070F484E190E118
:1045300059DBE0911C10F0911D103196849190E0B0
:104540002C96E8E00C9476F4F0904F10E090501028
:104550002091D60321110FC04DEE5FE06E2D8F2DFF
:104560000E9456D790E080E0F80EF0924F10E09253
:1045700050109927E5CFC0901C10D0901D1028E155
:1045800030E13A8329832F2D30E03C832B832E2D7D
:1045900030E03E832D8318861F822FEF3FEF3A874E
:1045A00029871C861B860FE91DE19E012F5F3F4F67
:1045B000AB01BC01C6010E9479C8B60188E190E157
:1045C0000E94A5D68F819885CFCF4F925F926F9230
:1045D0007F928F929F92BF92CF92DF92EF92FF9243
:1045E0000F931F93CF93DF93CDB7DEB728970FB606
:1045F000F894DEBF0FBECDBF7C016A014901FB010B
:1046000090818CE0989F800D1124982FF7012081D4
:10461000822F880F820F880F80934F109093501035
:104620004115510561F1FA82E9827C836B830111A6
:104630001FC0AE014B5F5F4FB401C6017CDE6C0151
:104640006D817E818F819885611571058105910548
:10465000B1F060DFF70180818F5F8083853148F39F
:10466000CE0101960E94C517E4CFB12C860129C066
:104670008A01B12C26C0452846284728B1F728963C
:104680000FB6F894DEBF0FBECDBFDF91CF911F9163
:104690000F91FF90EF90DF90CF90BF909F908F9001
:1046A0007F906F905F904F900895B39407C0B110C2
:1046B0002DC001151105C9F20F5F1F4F011511051E
:1046C000A9F2AE014B5F5F4FB401C60134DE6C014D
:1046D0004D805E806F8078844114510461047104C0
:1046E000A9F0F0E24F1651046104710401F3D30103
:1046F000C2018D97A109B1090297A105B10530F05A
:104700004BE2441651046104710479F6F70180818B
:10471000482F4B0D5527551F4631510534F0853034
:1047200020F0CE0101960E94C51781E0411451048A
:104730006104710409F480E0B80EF70180818B0DEB
:104740008083BB2009F497CFBA94AE014B5F5F4FD3
:10475000B401C801F0DD8C016D817E818F81988567
:10476000D9DEEFCFA3E0B0E0E8EBF3E20C9450F435
:104770004C013B015A011901280181E08093640436
:104780004091E0065091E1066091E2067091E306E7
:10479000411551056105710571F0141615060CF0EF
:1047A00080E0809360041092E0061092E10610927F
:1047B000E2061092E306109160048091CE068B838E
:1047C0001092CE06811105C080916C01882309F4F6
:1047D00069C0C20194DD082F80E0C114D10411F03A
:1047E000C6018DDD1A821982E114F104B1F4402F63
:1047F00050E0282F30E0CA01820F931F46976CF4D7
:1048000085E190E0841B950B821B930B97FD01962D
:10481000959587958A8381E0898301E02FEB37E1C5
:10482000A201BE016F5F7F4FCE010296CEDEE11482
:10483000F10489F08A81882321F01A8289818F5FAF
:10484000898300E022EC37E1A701BE016F5F7F4F53
:10485000CE010296BADEC114D10451F000E02FEB74
:1048600037E1A601BE016F5F7F4FCE010296ADDE3C
:1048700041E04127B30181E00E943FD6C4013FDD02
:10488000412FB40194E1981B892F0E943FD6EB8100
:10489000EE2341F0111101C05101A114B10431F016
:1048A000F50109952396E2E10C946CF457DBFACFFD
:1048B000CF92DF92EF92FF920F931F938CE1C82E5D
:1048C00083E1D82EF12CE12C0FE213E130E020E05F
:1048D0004FE65FE16EE173E185E293E143DF1F9113
:1048E0000F91FF90EF90DF90CF900895B0E0A0E09F
:1048F000ECE7F4E20C9458F4ADB6BEB681EB91E16E
:10490000FEDC90E001962DB73EB7281B390B0FB6A1
:10491000F8943EBF0FBE2DBF8DB79EB701967C01A8
:1049200061EB71E10E94B2EC8091D5060EE711E1D6
:10493000813031F009E611E1823011F001E911E135
:1049400082EAC82E81E1D82E28E63FE14FE65FE1FA
:1049500064EA71E18BEA91E105DF0FB6F894BEBE1F
:104960000FBEADBEEAE00C9474F4CF93DF93FC016C
:1049700025AD211104C021E025AF0E94F7D4C091DC
:104980001A10D0911B10E0914910F0914A1082E06A
:104990000995E0914910F0914A1081E0099530E0C5
:1049A00020E044E1BE0188E190E10E94F2D42BE4D2
:1049B00030E147E1BE0188E190E10E94F2D4E0914C
:1049C0004910F0914A1080E00995DF91CF91089548
:1049D0004F925F926F927F928F929F92AF92BF920F
:1049E000CF92DF92EF92FF92CF93DF9300D000D06F
:1049F000CDB7DEB70E9462D46B017C0180912701A4
:104A00008F3FC1F10E9462D480900304909004040F
:104A1000A0900504B0900604681979098A099B09D9
:104A200097FD28C080910010909101108F5F8F70CA
:104A3000891701F1E0912701E43008F0DCC024E09F
:104A4000E29FF0011124E257FE4F80819181A28103
:104A5000B38189839A83AB83BC8320E030E0A901D2
:104A6000BE016F5F7F4F80E49FE00E9466CB8FEFB7
:104A7000809327014CDB8091150482FFC5C0809193
:104A8000120481111DC091E09093120480911A04C8
:104A900089278093CE0610921A0483E080936C01DC
:104AA000109215040E9462D46C507E4F8F4F9F4F1E
:104AB000609316047093170480931804909319045C
:104AC00080910E0490910F04A0911004B0911104F4
:104AD000A7019601281B390B4A0B5B0BDA01C901B0
:104AE000B7FF05C080916104882309F4F5C1D7019F
:104AF000C6018C599F4FAF4FBF4F80930E049093C8
:104B00000F04A0931004B093110460911304062EB7
:104B1000000C770B77FF03C0719561957109909137
:104B2000130480910D04981372C0633008F06FC0B5
:104B3000109213048091130480930D04643008F0E4
:104B400076C08091CE068111F4C0809112109091B0
:104B500013103CE38B31930709F00FC180916D0175
:104B6000882309F4F8C0815080936D010E94BB89AD
:104B70008090270790902807A0902907B0902A07D7
:104B800081110E94C889D501C4013AE0B695A79564
:104B9000979587953A95D1F7009751E0A507B1050C
:104BA00020F08FEF9FEFA0E0B0E0969587952091E1
:104BB0006C01211111C1309161043111B9C1809191
:104BC0001210909113108B519C4309F498C180915D
:104BD0006404811194C18091090490910A04A09108
:104BE0000B04B0910C04C81AD90AEA0AFB0AF7FCB4
:104BF00094C16ED992C180916E0190916F01A09184
:104C00007001B091710125CF1092120459CF633019
:104C100009F090CF8091130487FD07C081E0880FD1
:104C2000880F8093130464E085CF8FEFF8CF8091D5
:104C3000F50621E030E040E050E0882309F456C05A
:104C40008090F1069090F206A090F306B090F406E2
:104C500081149104A104B104E9F170E090E080E0D6
:104C60000E946EED20E030E040E85EE30E94CFED70
:104C70002B013C01C701B601681979098A099B0912
:104C80000E946EED9B01AC01C301B2010E94FFF4D2
:104C900020E030E04AE754E40E94CFED4B015C0194
:104CA00020E030E040EA52E40E94EBF524E630E0F8
:104CB00040E050E087FF12C020E030E040EF51E4D8
:104CC000C501B4010E94EBF52AE030E040E050E07D
:104CD00087FF04C021E030E040E050E0C092F106E0
:104CE000D092F206E092F306F092F406A09113043B
:104CF0000A2E000CBB0B0E94E0F324E030E040E001
:104D000050E00E94BAF38091E0069091E106A091F4
:104D1000E206B091E306820F931FA41FB51F809394
:104D2000E0069093E106A093E206B093E3061092AA
:104D30001304D701C6018856954CAF4FBF4F8093DF
:104D4000090490930A04A0930B04B0930C0481E02F
:104D500080936C01FACE8CE080936D018091070402
:104D600090910804009729F001979093080480938C
:104D7000070481E080936C01F9CE8059934B09F0D0
:104D8000F5CE80916D019FEF980F90936D01811189
:104D9000EDCE8091F6068F5F8093F6069091F70630
:104DA00024E0891708F02CE020936D01981710F487
:104DB0001092F60681E080936C01D701C6018856F7
:104DC000954CAF4FBF4F8093090490930A04A09372
:104DD0000B04B0930C04CACE009741F04091070435
:104DE000509108044817590708F0E9CE80916104F2
:104DF000811111C0223038F0243008F43FC0243033
:104E000011F410926C0184E190E1AFDD81E08093B8
:104E1000DC068093610483E06CDB81E080933810D2
:104E2000E0911210F091131009951092DC06809118
:104E30006104811127C01092CE06809112109091CA
:104E400013108B519C4309F0C2CE0E9462D4DC0146
:104E5000CB018C199D09AE09BF0980900704909081
:104E60000804B12CA12C88169906AA06BB0608F0E6
:104E7000A6CE9093080480930704A1CE81E080938E
:104E80006C01C1CF88E190E10E9475D691E081115B
:104E900001C090E090936104882369F28091121020
:104EA000909113108B519C43B9F40E9462D4DC01A1
:104EB000CB018C199D09AE09BF09C0900704D090A1
:104EC0000804F12CE12CC816D906EA06FB0620F4EA
:104ED00090930804809307040F900F900F900F9009
:104EE000DF91CF91FF90EF90DF90CF90BF90AF9088
:104EF0009F908F907F906F905F904F90089558E9AA
:104F0000C50E5AE3D51EE11CF11CC0920904D092D3
:104F10000A04E0920B04F0920C0480916104811168
:104F2000DBCF80916C018130B9F610926C01D4CF47
:104F3000009709F470CF52CFACE0B0E0E2EAF7E2BC
:104F40000C945AF4F0904F10E09050102091D6033A
:104F5000211112C04DEC5FE06E2D8F2D0E9456D7AF
:104F600090E080E0F80EF0924F10E09250109927F8
:104F70002C96E8E00C9476F4C0901C10D0901D1094
:104F800028E130E13A8329832F2D30E03C832B83C5
:104F90002E2D30E03E832D8318861F827A87698705
:104FA0001C861B860FE91DE19E012F5F3F4F4FEBD3
:104FB00057E1BC01C6010E940EC9B60188E190E12B
:104FC0000E94A5D68F819885CDCFA4E0B0E0EBEE0E
:104FD000F7E20C9456F47C01062F5A01122F862F0B
:104FE000660F990B9C012E573E4F690186E0882E73
:104FF000912C11160CF03DC0AE014F5F5F4F6FEB6F
:1050000077E1C70198D97C0169817A818B819C8184
:10501000611571058105910561F16D33710581059A
:10502000910509F450C06E3771058105910509F4A9
:105030004AC06A3271058105910501F507FF11C06B
:1050400081E190E10E3F11F08DE090E136E0130236
:10505000B001112471DF66E070E00E9422F4161B9B
:1050600060C065E470E080E090E054DA115069F5CA
:1050700010E0812F2496ECE00C9472F464327105F8
:105080008105910571F4A114B104D1F0E6E01E028E
:10509000B0011124C50150DFB4010E9422F4161B97
:1050A000A8CF603471058105910551F41150F601C6
:1050B0006081062E000C770B880B990B2BDA99CFA9
:1050C00029DA115096CF07FDBBCF61E089819A8123
:1050D000AB81BC81CD97A105B10509F460E0600FFB
:1050E0006A30A4F01150862F6AE00E9401F4092F63
:1050F000682F880F770B605D7F4F072E000C880BA1
:10510000990B08DA112309F4B3CF602F062E000C97
:10511000770B605D7F4F072E000C880B990BFAD937
:105120001150112309F4A4CF86E01802B001112414
:10513000C70102DF66E070E00E9422F4161B99CFDF
:10514000E4E1F0E183AF64AF6FEF7FEFCA01F4CE2B
:10515000ACE0B0E0EEEAF8E20C945AF4F0904F10B4
:10516000E09050102091D603211112C04DEA5FE06B
:105170006E2D8F2D0E9456D790E080E0F80EF092B1
:105180004F10E092501099272C96E8E00C9476F49A
:10519000C0901C10D0901D1028E130E13A83298383
:1051A0002F2D30E03C832B832E2D30E03E832D834A
:1051B00018861F827A8769871C861B860FE91DE186
:1051C0009E012F5F3F4F42EC57E1BC01C6010E9498
:1051D0000EC9B60188E190E10E94A5D68F8198851D
:1051E000CDCF6FEF7FEFB4CFB0E0A0E0EAEFF8E211
:1051F0000C9458F45C016B0182D8E82EC6018DD85E
:10520000F12C03E110E0081B1109C5E20E151F0582
:105210000CF4CFE18C2F90E09C012E5F3F4F40912A
:105220004C104217130609F08CF5099720914E1087
:10523000281719065CF14091FA065091FB0660911F
:10524000F90610924F10C093501025E1C501BDDE44
:10525000D1E0C114D104A9F06AE370E080E090E0ED
:1052600059D90E151F05A4F4C45F80914C10C817BE
:1052700040F020914E104C2F4950550B2417150625
:105280004CF4CDB7DEB7EAE00C9474F4D0E0E1CF93
:10529000DD23B9F3802F880F080F000F00934F1004
:1052A000C093501060E270E080E090E033D9C60116
:1052B00098DFE7CF0F931F93CF93DF93FC01EB01B0
:1052C0008091E0069091E106A091E206B091E3069C
:1052D000B7FF08C01092E0061092E1061092E206B5
:1052E0001092E3068091E4069091E506A091E6060F
:1052F000B091E7064091E0065091E1066091E20628
:105300007091E30684179507A607B70744F48093C6
:10531000E0069093E106A093E206B093E306809145
:105320006C018823D9F06091E0067091E1068091CC
:10533000E2069091E3060091E8061091E9062091BB
:10534000EA063091EB06600F711F821F931F0995CB
:10535000BC018091EE069091EF0646DF8091CE066B
:10536000811108C08091DD068823A9F180916C012C
:10537000882389F18091EC069091ED060097B1F0B9
:105380004091E0065091E1066091E2067091E306DB
:105390000091E8061091E9062091EA063091EB06AB
:1053A000400F511F621F731FFE010995E091DE0639
:1053B000F091DF06309741F08091DD06811103C046
:1053C0008091CE06811109958091CE061092CE066D
:1053D00081110E94AE1FDF91CF911F910F9108950F
:1053E00069E474E781E79AE165CF6DE377E18BE7E4
:1053F0009AE160CF61E577E185E89AE15BCF67E606
:1054000077E18FE89AE156CF6BE777E189E99AE196
:1054100051CF69E877E18DE99AE14CCF6DE977E109
:1054200087EA9AE147CF6BEA77E18EEA9AE142CFC9
:10543000ACE0B0E0EEE1FAE20C9456F4982F862F3F
:105440006A017901B02E692F1DD8882309F488C01C
:105450001091D603C701002379F10E947F21A82E65
:1054600080901C1090901D10111142C02FEF3FEF43
:10547000122F23E12A194091FA065091FB06609100
:10548000F906C601A2DDAA2009F46AC0B6E08B9F26
:10549000600111246AE370E080E090E03BD857E0BF
:1054A000C516D10408F442C060E270E080E090E0EC
:1054B00031D8C81AD90AF3CF0E948D21A82E809026
:1054C0001C1090901D10112389F2FE0133968AE082
:1054D000DF011D928A95E9F788E190E19A8389833B
:1054E00008E71DE19E012F5F3F4F42EC57E112C0DC
:1054F000FE0133968AE0DF011D928A95E9F788E183
:1055000090E19A83898308E71DE19E012F5F3F4F59
:105510004FEB57E1B701C4010E940EC9B40188E105
:1055200090E10E94A5D62F813885A2CF4091F80640
:10553000212F30E0A6E0AA9EC00111242E5F3F4F2C
:10554000281739070CF49C0180E8821B80934F10C8
:1055500040935010BB2041F06FEF7FEFC701ECDCB0
:105560002C96ECE00C9472F4C7013BDEF9CFA6E078
:10557000B0E0EDEBFAE20C9450F40E94D11E8E8361
:105580000E9492D12091D9062D83522E2B5F298320
:1055900085E085198A8386E085198B8384E08519E7
:1055A0008C8383E0482E451882E0382E35182AE295
:1055B000622E23E1722E81E0282E25188D81811123
:1055C00042C08091DB06882371F180916C018823B1
:1055D00061F0652D619581E09091DB06911180E08D
:1055E00024E041EA53E10E9463D09E819111C4C13D
:1055F0008D81853009F03AC18091DB06853009F450
:10560000E1C080916C01882361F081E09091DB061C
:10561000953009F080E023E04FE553E16A810E9474
:1056200063D017E0AAC18091CE061092CE068823DF
:1056300061F20E94AE1F8091F006882331F2269617
:10564000E2E10C946CF49D81913071F58091DB0660
:105650008130C9F080916C01882339F21F9280E972
:1056600093E19F938F932F9281E09091DB0691308D
:1056700009F080E08F930E94BA1E0F900F900F9058
:105680000F900F90B2CF8091CE061092CE06882355
:1056900009F370927406609273060E94681F8091ED
:1056A000F0068823B9F2CBCF2D81223009F038C122
:1056B0008091DB068230A1F080916C01882361F03B
:1056C00081E09091DB06923009F080E023E047E82A
:1056D00053E1632D0E9463D08E8181114DC1A1CF12
:1056E0008091CE061092CE06882331F388ED9CE29D
:1056F0000E945EA08091F0068823F1F2A0CF8091F5
:10570000DB068330B1F080916C01882309F430C14D
:1057100081E09091DB06933009F080E023E04AE7D6
:1057200053E1642D0E9463D09E81992309F479CFBF
:1057300023C18091CE061092CE06882321F387E9FB
:105740009EE20E945EA08091F0068823E1F277CF6E
:105750008091CE061092CE06882309F4EDC020E099
:1057600030E04AE754E460910F0770911007809190
:105770001107909112070E94CFED20E030E040E841
:105780005FE30E9487F40E946CF5912C812C83E1E9
:10579000A82E8AE2B82E6B011BE2E12EFF24F394BF
:1057A00000E010E021E030E040E050E06FE077E022
:1057B0008DE693E10E9445D18091F006882309F49B
:1057C000BBC03DCF8091CE061092CE06882309F44F
:1057D00018CF82E591E30E945EA08091F0068823B5
:1057E00009F40FCF2CCF8091CE061092CE068823DD
:1057F00009F445C087EA92E30E945EA08091F0061A
:105800008823E9F11CCF8091CE061092CE06882322
:1058100009F4BBC08EEC93E30E945EA08091F00679
:10582000882309F4B2C00BCF8091CE061092CE0629
:10583000882309F440C089E495E30E945EA080912A
:10584000F0068823C1F1FBCE8091CE061092CE06E1
:10585000882309F44CC00E94CC1F20E040E070E097
:1058600060E088E594E20E94EB1EE9CE2D812630AF
:1058700009F0D7CE8091DB06863009F4B4CF809151
:105880006C01882309F4CDCE81E09091DB0696303F
:1058900009F080E023E046E553E16B810E9463D08C
:1058A00017E081E0810F9D81891316C08091DB068E
:1058B000891709F4B9CF80916C01882369F06D8153
:1058C000651981E09091DB062D81921380E023E041
:1058D00041E453E10E9463D082E0810F9D818913EE
:1058E00015C09091DB062D81921709F4ADCF809100
:1058F0006C01882359F06D81651981E02D81921327
:1059000080E023E04FE253E10E9463D08D818F5FFE
:105910008D839981891352CE1D5F1093DA068FCE45
:105920008D81833009F4EBCE843009F05ECE809116
:10593000DB06843009F40CCF80916C018823C1F020
:1059400011E08091DB06843009F010E060910F07D0
:105950007091100780911107909112070E946BAA15
:1059600000E09C014DE653E16C81812F61DDDCCECE
:105970002E81222309F47ACF15E09D81191391CF4E
:105980008091DB06811709F43ECF80916C0188235A
:1059900009F487CF6D81651981E09091DB062D8137
:1059A000921380E023E04AE453E10E9463D079CF70
:1059B000B0E0A0E0EEEDFCE20C9455F40E9492D130
:1059C000C091D90665E0862E8C0ED6E0DC1B85E002
:1059D000D82EDC1A84E0C82ECC1A83E0B82EBC1A6C
:1059E00082E0A82EAC1A81E0982E9C1A7C2E71942D
:1059F000C1112BC08091DB068823B1F080916C012E
:105A0000882359F081E09091DB06911180E024E039
:105A10004AE053E1672D0E9463D0CF5F8C12E8CF3C
:105A200087E08093DA060CC08091CE061092CE06F5
:105A3000882321F30E94AE1F8091F0068823F1F2A3
:105A4000CDB7DEB7EDE00C9471F4C130E1F5809193
:105A5000DB068130E1F080916C018823F1F211E0E6
:105A60008091DB06813009F010E06091130C709199
:105A7000140C8091150C9091160C0E9438AA00E02D
:105A80009C0146E552E1692D812FD2DCC6CF809181
:105A9000CE061092CE068823F1F20E9439D1E12C75
:105AA0001CE3F12E0CE116E420E030E040E85FE377
:105AB00063E17CE086E592E10E94E8D18091F00606
:105AC000882349F2BDCFC23009F006C18091DB06C0
:105AD0008230D9F080916C01882309F49ECF11E0C7
