:100000000C9471150C94AA150C94AA150C94AA15AD
:100010000C94AA150C94AA150C94AA150C94AA1564
:100020000C94AA150C94AA150C94AA150C94AA1554
:100030000C94AA150C94B46A0C94AA150C94AA15E5
:100040000C94AA150C9494690C94E6C90C94AA1506
:100050000C94FB460C94C5460C94AA150C94AA1556
:100060000C94AA150C94AA150C94AA150C94AA1514
:100070000C94AA150C94AA150C94AA150C94AA1504
:100080000C94AD320C94AA150C94AA154E414E490D
:100090004E495459494E46CDCCCC3D0AD7233C1746
:1000A000B7D13877CC2B329595E6241FB14F0A0093
:1000B0000020410000C84200401C4620BCBE4CCA83
:1000C0001B0E5AAEC59D7400407A10F35A00A07200
:1000D0004E18090010A5D4E80000E8764817000083
:1000E000E40B54020000CA9A3B000000E1F5050051
:1000F0000080969800000040420F000000A086019A
:10010000000000102700000000E803000000006469
:1001100000000000000A00000000000100000000D4
:10012000002C76D888DC674F0823DFC1DFAE59E1A9
:10013000B1B796E5E3E453C63AE651997696E8E618
:10014000C28426EB898C9B62ED407C6FFCEFBC9CEB
:100150009F40F2BAA56FA5F490055A2AF75C936BFD
:100160006CF9676DC11BFCE0E40D47FEF520E6B5B8
:1001700000D0ED902E0300943577050080841E0892
:100180000000204E0A000000C80C333333330F98B0
:100190006E12831141EF8D2114893BE65516CFFE77
:1001A000E6DB18D1844B381BF77C1D901DA4BBE403
:1001B00024203284725E228100C9F124ECA1E53D45
:1001C00027434F4D4D554E49434154494F4E0044EE
:1001D000525952554E004552524F525300494E46C5
:1001E0004F004543484F0053544F505045442E2034
:1001F000005072696E7465722073746F70706564FC
:100200002064756520746F206572726F72732E2082
:1002100046697820746865206572726F7220616E1D
:100220006420757365204D39393920746F207265EB
:1002300073746172742E202854656D7065726174D8
:100240007572652069732072657365742E2053651D
:1002500074206974206166746572207265737461BC
:100260007274696E67290A004E6F20436865636B7C
:1002700073756D2077697468206C696E65206E7582
:100280006D6265722C204C617374204C696E653A06
:1002900020004E6F20436865636B73756D2077692E
:1002A0007468206C696E65206E756D6265722C20B5
:1002B0004C617374204C696E653A20006368656315
:1002C0006B73756D206D69736D617463682C204C60
:1002D000617374204C696E653A20004C696E65202C
:1002E0004E756D626572206973206E6F74204C616B
:1002F0007374204C696E65204E756D6265722B318A
:100300002C204C617374204C696E653A20004D318D
:1003100031300053657269616C2073746174757358
:10032000206D69736D617463680A005344207265BF
:100330006164206572726F720A002121204B494C62
:100340004C2063617573656420627920746F6F203F
:100350006D75636820696E61637469766520746980
:100360006D65202D2063757272656E7420636F6DEC
:100370006D616E643A2000486F74656E6420496454
:100380006C652054696D656F757400486F74656E97
:10039000642049646C652054696D656F75740A004A
:1003A000627573793A2070617573656420666F7247
:1003B00020696E7075740A00627573793A207061F5
:1003C0007573656420666F7220757365720A0062CA
:1003D0007573793A2070726F63657373696E670A1B
:1003E000004D6564696120496E73657274656400CF
:1003F000506C656173652052657365740050524995
:100400004E5445522048414C5445440025533A200F
:100410002553004B494C4C45442E20005072696EC8
:100420007465722068616C7465642E206B696C6CF5
:1004300028292063616C6C6564210A0053544F5075
:100440005045442E20005072696E7465722073749A
:100450006F707065642064756520746F20657272BA
:100460006F72732E204669782074686520657272F9
:100470006F7220616E6420757365204D39393920A3
:10048000746F20726573746172742E202854656DC8
:100490007065726174757265206973207265736529
:1004A000742E20536574206974206166746572200F
:1004B00072657374617274696E67290A0065636896
:1004C0006F3A004572726F723A004F4646004F4EC7
:1004D0000042696C696E656172204C6576656C6975
:1004E0006E6720477269643A0A0021212053544FF5
:1004F000502063616C6C656420626563617573652F
:10050000206F6620424C546F756368206572726F6D
:1005100072202D207265737461727420776974681B
:10052000204D3939390A0021212053544F5020637E
:10053000616C6C65642062656361757365206F66CC
:1005400020424C546F756368206572726F72202D63
:1005500020726573746172742077697468204D39F4
:1005600039390A004F46460A0046616465204865ED
:10057000696768742000426564204C6576656C6923
:100580006E6720004661696C656420746F20656E3B
:1005900061626C6520426564204C6576656C696EAD
:1005A000670A00496E76616C6964206D6573682E18
:1005B0000A0050726F62696E6720506F696E740036
:1005C00025532025692F2569002E0A002F0050721F
:1005D0006F62696E67206D65736820706F696E74F5
:1005E0002000202844525952554E290047323920C4
:1005F0004175746F20426564204C6576656C696E48
:1006000067003F20284C2C522C462C4229206F7525
:1006100074206F6620626F756E64732E0A003F2827
:1006200056296572626F7365206C6576656C20690A
:100630006D706C61757369626C652028302D34298A
:100640002E0A00426164205A2076616C75650A00AA
:100650004E6F2062696C696E6561722067726964B1
:100660000A0020204D3230312058004D6178204161
:100670006363656C65726174696F6E2028756E695D
:1006800074732F7332290020204D323033205800EC
:100690004D617820666565647261746573202875A4
:1006A0006E6974732F73290020520020204D323060
:1006B00034205000416363656C65726174696F6ECC
:1006C0002028756E6974732F7332292028503C706E
:1006D00072696E742D616363656C3E20523C726575
:1006E00074726163742D616363656C3E20543C7465
:1006F000726176656C2D616363656C3E29002054E0
:100700000020530020204D323035204200416476D5
:10071000616E6365642028423C6D696E5F73656736
:100720006D656E745F74696D655F75733E20533CD3
:100730006D696E5F66656564726174653E20543CE8
:100740006D696E5F74726176656C5F666565647213
:100750006174653E20583C6D61785F785F6A6572B0
:100760006B3E20593C6D61785F795F6A65726B3EC4
:10077000205A3C6D61785F7A5F6A65726B3E2045F6
:100780003C6D61785F655F6A65726B3E290020444D
:100790000020490020204D333031205000486F7434
:1007A000656E6420504944002E0A00206E6F74204C
:1007B00064697361626C65642E205368617265645C
:1007C000207769746800203B204C6576656C696E03
:1007D00067200020204D3432302053004175746F63
:1007E00020426564204C6576656C696E6700204622
:1007F0000020420020480020204D31343520530095
:100800004D6174657269616C2068656174757020F2
:10081000706172616D65746572730020204D3930AE
:1008200030204B004C696E65617220416476616EC8
:10083000636500204A0020204732392057204900B4
:1008400020204D3134392043203B20556E6974738C
:1008500020696E2043656C736975730A0054656D79
:10086000706572617475726520556E6974730020CD
:1008700020473231203B004C696E65617220556E15
:100880006974730020496E76616C696420657874C0
:1008900072756465722000536C6565702E2E2E0093
:1008A0005A2050726F6265205061737420426564F3
:1008B0000A005A2050726F626520506173742042A2
:1008C0006564004732384C3000205A3A20002059E5
:1008D0003A200042656420583A20004D6573682034
:1008E000706F696E74206F7574206F662072616E10
:1008F00067650A00436C69636B20746F20526573EF
:10090000756D652E2E2E00616C736F20656E6162B1
:100910006C6564290A004E6F204D6F76652E004588
:100920006E642066696C65206C6973740A004265A8
:1009300067696E2066696C65206C6973740A004E85
:100940006F206D656469610A00286E6F2066696CAE
:1009500065290043757272656E742066696C653A2C
:1009600020005344207072696E74696E672062794A
:10097000746520004E6F74205344207072696E7449
:10098000696E670A002E0A0044656C6574696F6EB3
:10099000206661696C65642028726561642D6F6EE4
:1009A0006C79292C2046696C653A20002569730012
:1009B00025696D20256973002569682025696D20EA
:1009C00025697300256964202569682025696D20E3
:1009D00025697300256979202569642025696820C7
:1009E00025696D20256973005072696E74207469E1
:1009F0006D653A20006F6B006F666600E201DD01F5
:100A0000D601CF01C10144454255473A004D31312D
:100A100033205300456E6465722D33204F46462EB9
:100A2000002F2F004D31343520533C696E646578BA
:100A30003E206F7574206F662072616E6765202896
:100A4000302D31290A005741524E494E4721204C42
:100A50006F77205A204A65726B206D6179206C6532
:100A6000616420746F20756E77616E7465642070A8
:100A700061757365732E0A0020580020204D61783F
:100A80003A2000200020204D696E3A2000203B20B3
:100A90000020204D323131205300536F66742065A1
:100AA0006E6473746F70730046523A0020466C6F28
:100AB000773A20003A200020536572766F2000209C
:100AC0006F7574206F662072616E67650A005365EA
:100AD00072766F20004261627973746570205A00EB
:100AE00050726F6265204F6666736574205A0050BD
:100AF000726F6265204F6666736574205A00646980
:100B00007300656E0043290A0061626C65642028E9
:100B10006D696E2074656D702000436F6C64206594
:100B2000787472756465732061726520004D34328B
:100B30003120696E636F72726563742070617261D7
:100B40006D657465722075736167650A004D657324
:100B50006820706F696E74206F7574206F662072E4
:100B6000616E67650A00454550524F4D204F4B0A54
:100B700000290A0020746F20003F5A206F757420EE
:100B80006F662072616E6765202800290A00207454
:100B90006F20003F59206F7574206F662072616E60
:100BA000676520282D00290A0020746F20003F5817
:100BB000206F7574206F662072616E676520282D26
:100BC00000290A00204B00285300204B0041647686
:100BD000616E63652053004D383400446F6E6520AC
:100BE0007072696E74696E672066696C650A004D83
:100BF0003737004D333100496E76616C696420658A
:100C0000787472756465720A004361703A00434FEC
:100C10004E4649475F4558504F5254004D45415448
:100C20005041434B00434F4F4C45525F54454D504C
:100C300045524154555245004348414D4245525F4B
:100C400054454D5045524154555245004241425938
:100C50005354455050494E470041524353004D4F65
:100C600054494F4E5F4D4F44455300544845524DF3
:100C7000414C5F50524F54454354494F4E004558E4
:100C800054454E4445445F4D3230004C4F4E475F13
:100C900046494C454E414D45004155544F524550F3
:100CA0004F52545F53445F5354415455530053447F
:100CB0005F575249544500524550454154005344F2
:100CC000434152440050524F4D50545F5355505081
:100CD0004F525400484F53545F414354494F4E5F65
:100CE000434F4D4D414E445300454D455247454EAF
:100CF00043595F50415253455200434153455F4C65
:100D0000494748545F4252494748544E455353005F
:100D1000544F47474C455F4C494748545300534F45
:100D20004654574152455F504F574552004255492E
:100D30004C445F50455243454E54004C4556454C3B
:100D4000494E475F44415441005A5F50524F42451B
:100D50000052554E4F5554004155544F4C45564541
:100D60004C005052494E545F4A4F420050524F4738
:100D700052455353004155544F5245504F52545FC2
:100D800054454D50004155544F5245504F52545FB9
:100D9000504F5300564F4C554D4554524943004512
:100DA0004550524F4D0042494E4152595F46494CC1
:100DB000455F5452414E53464552005345524941B6
:100DC0004C5F584F4E5F584F4646004649524D576C
:100DD0004152455F4E414D453A4D61726C696E20FE
:100DE000322E302E392E3320284D61792031342097
:100DF000323032322032323A34303A3537292053C9
:100E00004F555243455F434F44455F55524C3A67F7
:100E100069746875622E636F6D2F4D61726C696EB7
:100E20004669726D776172652F4D61726C696E20D3
:100E300050524F544F434F4C5F56455253494F4EBB
:100E40003A312E30204D414348494E455F54595068
:100E5000453A456E6465722D3320455854525544C9
:100E600045525F434F554E543A3120555549443A07
:100E700063656465326132662D343161322D3437F9
:100E800034382D396231322D63353563363266336D
:100E9000363766660A0020286D6D2900203B002049
:100EA000204D3835312058005A2D50726F62652020
:100EB0004F666673657400436F6F6C696E672E2EA4
:100EC0002E0048656174696E672E2E2E0045312014
:100ED00025530042656420436F6F6C696E672E2E48
:100EE0002E004265642048656174696E672E2E2E5F
:100EF0000023646566696E652044454641554C543F
:100F00005F004B6420004B6920004B70200050496B
:100F100044204175746F74756E652066696E6973DF
:100F2000686564212050757420746865206C617355
:100F300074204B702C204B6920616E64204B642020
:100F4000636F6E7374616E74732066726F6D20626E
:100F5000656C6F7720696E746F20436F6E6669678A
:100F600075726174696F6E2E680A005049442041A1
:100F700075746F74756E65206661696C6564212097
:100F800074696D656F75740A005049442041757429
:100F90006F74756E65206661696C656421205465A7
:100FA0006D706572617475726520746F6F20686909
:100FB00067680A00504944204379636C65730025D3
:100FC000532025692F256900204B643A2000204BCF
:100FD000693A2000204B703A200020436C61737303
:100FE000696320504944200A002054753A200020AB
:100FF0004B753A2000206D61783A2000206D696EB3
:101000003A200020643A200020626961733A20008F
:101010005761697420666F7220686561742075700D
:101020002E2E2E00504944204175746F74756E65E4
:101030002073746172740A00504944204175746FC2
:1010400074756E65206661696C6564212054656DF8
:10105000706572617475726520746F6F206869675E
:10106000680A00504944204175746F74756E6500BC
:10107000504944204175746F74756E6520666169CE
:101080006C6564212042616420686561746572202A
:1010900069640A004572723A207574663820666F7A
:1010A0006E74206E6F7420696E697469616C697A00
:1010B00065642E004572723A207574663820666F3A
:1010C0006E74206E6F7420696E697469616C697AE0
:1010D00065642E004572723A207574663820666F1A
:1010E0006E74206E6F7420696E697469616C697AC0
:1010F00065642E002568753A253032687500253004
:101100003268753A253032687500253032687527A7
:101110002530326875002568756420253032687581
:101120003A25303268750042656400456E636C6F25
:1011300073757265002020202020202000202020B0
:101140002000657272001FE0201020102010102077
:1011500010202010201030300840048003001FE0D1
:101160003FF03FF03FF01FE01FE03FF03FF03FF067
:101170000FC0078003003FFFF038007030FC3020C4
:10118000FC102078102030102C00D02E31D02F7B76
:10119000D02F7BD02E31D02C00D0203010207810D2
:1011A00020FC1030FC303800703FFFF03FFFF0387B
:1011B00000703186302387102787902F87D02F0328
:1011C000D02030102078102078102030102F03D03D
:1011D0002F87D02787902387103186303800703FC3
:1011E000FFF01FFFF81FFFF804104002082002085C
:1011F0002004104008208010410010410008208089
:101200000410400000001FFFF81FFFF8000C0F0043
:10121000FE07022503BB017FFE08FE08FE05080845
:1012200006000040F0C88888987810050808060075
:1012300000C0F88888888888F80505050600012020
:1012400030F830200508080600002070F820202023
:1012500020E00509090600FF2070A8A8B88888705A
:1012600020070505070001D86C366CD8050909066A
:1012700000FFF8A88888888888A8F8050A0A060068
:10128000FE205050505088A8A88870030303060021
:101290000340A040FFFFFFFFFFFFFFFFFFFFFFFF37
:1012A000FFFFFFFFFFFFFFFFFFFF0000000605FF3E
:1012B000010707060200808080808000800303030E
:1012C000060105A0A0A005060606000050F8505033
:1012D000F8500509090600FF2070A8A07028A87022
:1012E00020050707060000C8C81020409898050789
:1012F0000706000040A0A040A89068010303060272
:10130000058080800309090601FF2040408080801D
:101310004040200309090601FF8040402020204072
:10132000408005070706000020A8702070A820054F
:1013300005050600012020F820200203030601FF16
:10134000C04080050101060003F802020206010008
:10135000C0C00507070600000810102040408005A7
:101360000707060000708898A8C88870030707065A
:10137000010040C040404040E00507070600007003
:101380008808102040F8050707060000F80810300C
:1013900008887005070706000010305090F81010FC
:1013A000050707060000F880F008088870050707A1
:1013B000060000304080F0888870050707060000AE
:1013C000F808101020202005070706000070888804
:1013D00070888870050707060000708888780810F4
:1013E00060020505060100C0C000C0C00206060676
:1013F00001FFC0C000C04080030505060101204078
:10140000804020050303060002F800F803050506E6
:101410000101804020408005070706000070881009
:10142000202000200507070600007088B8A8B880B3
:1014300070050707060000708888F8888888050707
:1014400007060000F04848704848F0050707060006
:101450000070888080808870050707060000F048CB
:1014600048484848F0050707060000F88080F080EB
:1014700080F8050707060000F88080F0808080056E
:1014800007070600007088808098887005070706A7
:101490000000888888F8888888030707060100E02C
:1014A0004040404040E0050707060000381010109B
:1014B0001090600507070600008890A0C0A09088E3
:1014C000050707060000808080808080F8050707F8
:1014D00006000088D8A888888888050707060000C5
:1014E0008888C8A89888880507070600007088883B
:1014F00088888870050707060000F08888F08080DB
:101500008005070706000070888888A8906805078E
:1015100007060000F08888F0A090880507070600FD
:101520000070888070088870050707060000F820A2
:10153000202020202005070706000088888888884A
:1015400088700507070600008888888850502005A5
:10155000070706000088888888A8A850050707069E
:1015600000008888502050888805070706000088FA
:10157000885020202020050707060000F8081020CA
:101580004080F80309090601FFE0808080808080A8
:1015900080E0050707060000804040201010080387
:1015A00009090601FFE020202020202020E005037B
:1015B000030600052050880501010600FEF803031C
:1015C0000306010580402005050506000070087827
:1015D00088780507070600008080F0888888F00575
:1015E000050506000070808088700507070600006A
:1015F000080878888888780505050600007088F056
:101600008070050707060000304840E04040400574
:1016100007070600FE7088888878087005070706A7
:1016200000008080F0888888880307070601004052
:1016300000C0404040E00409090601FE10003010DF
:10164000101010906005070706000080808890E069
:101650009088030707060100C04040404040E00575
:101660000505060000D0A8A8A8A8050505060000E5
:10167000B0C88888880505050600007088888870CD
:101680000507070600FEF0888888F08080050707B8
:101690000600FE7888888878080805050506000099
:1016A000B0C880808005050506000078807008F0CD
:1016B0000507070600002020F82020201805050552
:1016C0000600008888889868050505060000888857
:1016D0008850200505050600008888A8A850050543
:1016E0000506000088502050880507070600FE8880
:1016F000888850204080050505060000F81020402D
:10170000F80309090601FF20404040804040402086
:101710000109090602FF808080808080808080032C
:1017200009090601FF8040404020404040800503F9
:101730000306000248A890FF504C41005072696EA9
:10174000742041626F72746564004D3235005061DF
:101750007573696E672E2E2E004D3234004545504C
:10176000524F4D2056657273696F6E204572726FCD
:101770007200454550524F4D20496E6465782045B2
:1017800072726F7200454550524F4D2043524320B4
:101790004572726F72003F0049676E6F726500524A
:1017A0006573657400496E697469616C697A652056
:1017B000454550524F4D0050726F6265205A204F80
:1017C0006666736574004D333033205531204525EE
:1017D000692053256900504944204175746F747520
:1017E0006E65202A002008204661637400200820CE
:1017F0004D6178002008204D696E004F6666004FED
:101800006E004175746F74656D700045207374656A
:1018100070732F6D6D005A2053746570732F6D6D4A
:1018200000592053746570732F6D6D0058205374E8
:101830006570732F6D6D00416476616E6365642021
:1018400053657474696E677300416476616E636595
:10185000204B0054656D706572617475726500533C
:10186000746570732F6D6D00436F6E666967757276
:101870006174696F6E0053746F7265205365747480
:10188000696E6773004C6F61642053657474696E90
:1018900067730050726F6265205A204F66667365E9
:1018A00074004661646520486569676874004F6626
:1018B00066004F6E00426564204C6576656C696E0B
:1018C00067004C6576656C20426564004732394E8E
:1018D00000473239004175746F20486F6D65004DC7
:1018E0006F74696F6E0053572D4D6F6465005374AC
:1018F0006F77004465706C6F790053656C662D548A
:1019000065737400526573657400436F6E66696732
:1019100075726174696F6E00526573746F726520C1
:1019200044656661756C7473004C6F616420536527
:101930007474696E67730053746F726520536574B5
:1019400074696E677300424C546F7563680050721F
:101950006F6265205A204F66667365740041647635
:10196000616E6365642053657474696E6773004DBE
:1019700061696E003F004261636B0053746F7000D9
:101980004D323200417474616368204D6564696151
:10199000004D3231005072696E742066726F6D2096
:1019A0004D656469610052656C65617365204D65C4
:1019B00064696100436F6E66696775726174696F0F
:1019C0006E0054656D7065726174757265004D6F5F
:1019D00074696F6E00526573756D65205072696E23
:1019E000740054756E650053746F70205072696E88
:1019F00074005061757365205072696E7400496E91
:101A0000666F2053637265656E003F0053746172A8
:101A100074205072696E740043616E63656C00508F
:101A200072696E740043616E6E6F7420656E7465CA
:101A300072207375626469723A200002202E2E00B3
:101A40000152656672657368004D61696E00210020
:101A5000486F74656E6420746F6F20636F6C6400F0
:101A60004261636B0050726F63656564004D6F7413
:101A7000696F6E0044697361626C652053746570B0
:101A800070657273004D383400426564204C657691
:101A9000656C696E67004175746F20486F6D6500F5
:101AA000473238004D61696E005072656865617437
:101AB00020242042656400507265686561742024AA
:101AC00020456E640054656D706572617475726551
:101AD000003817436F6F6C646F776E0050726568E3
:101AE00065617420240046616E2053706565640052
:101AF000426564004E6F7A7A6C65004D61696E00D4
:101B000050726F6265205A204F6666736574004696
:101B10006C6F770046616E205370656564004265A6
:101B200064004E6F7A7A6C65005370656564004D91
:101B300061696E00486F6D696E67204661696C650A
:101B400064006F70656E00545249474745524544E2
:101B5000003A20007A5F6D696E00795F6D696E00F2
:101B6000785F6D696E005265706F7274696E672080
:101B7000656E6473746F70207374617475730A009A
:101B800020636F6C6420657874727573696F6E2062
:101B900070726576656E7465640A00486F6D6520C5
:101BA0002573257325732046697273740000000045
:101BB0000000000000000000005761726E696E674F
:101BC0003A20486F6D696E672042756D70204469D8
:101BD0007669736F72203C20310A00020204000013
:101BE0006B4300006B4300007A430000A0400000FC
:101BF000A04000000040FFFFFF50726568656174FF
:101C0000696E672E2E2E0000006B4300006B4300B0
:101C1000007A4300000000000000000000000053B4
:101C2000657474696E67732053746F726564000025
:101C300000FA430000FA430000A0400000C8410041
:101C400000A0420000A0420000C8430000BA42F4D5
:101C5000010000F40100006400000088130000246B
:101C6000F4D43050C38E20C2A24017828B70111260
:101C70007A910D816CD90AA861E108C7586607619D
:101C80005143061E4B5D05C145A7041A41110409C5
:101C90003D9803713931034036DB0265339102D43C
:101CA000305402802E1D02632CEE01752AC501B04E
:101CB00028A001102781018F2564012B244B01E00E
:101CC000223401AC211F018D200D01801FFC0084F6
:101CD0001EED00971DDF00B81CD200E61BC60020D9
:101CE0001BBC00641AB200B219A8000A19A0006A4D
:101CF000189900D117910040178B00B51684003158
:101D0000167E00B31579003A157300C7146F00589A
:101D1000146A00EE1366008813630025135E00C783
:101D2000125B006C12570015125400C11151007063
:101D3000114F0021114B00D61049008D104700466D
:101D400010440002104200C00F4000800F3E0042CD
:101D50000F3C00060F3B00CB0E3800930E37005CA3
:101D60000E3500270E3400F30D3200C10D31009006
:101D70000D3000600D2E00320D2D00050D2C00D908
:101D80000C2B00AE0C2900850C29005C0C270035BB
:101D90000C27000E0C2600E80B2400C40B2400A026
:101DA0000B23007D0B23005A0B2100390B21001857
:101DB0000B2000F80A1F00D90A1E00BB0A1E009D56
:101DC0000A1D00800A1D00630A1C00470A1B002C24
:101DD0000A1B00110A1A00F7091A00DD091900C4CC
:101DE000091900AB091900920917007B0918006353
:101DF0000917004C09160036091600200916000ABA
:101E0000091500F5081500E0081400CC081400B806
:101E1000081400A4081400900813007D0812006B39
:101E20000813005808120046081200340811002355
:101E30000811001208110001081100F0071000E05D
:101E4000071000D0071000C0071000B0070F00A156
:101E500007100091070E0083070F0074070F00653D
:101E6000070E0057070E0049070E003B070D002E16
:101E7000070E0020070D0013070D0006070D00F9DF
:101E8000060C00ED060D00E0060C00D4060C00C8A0
:101E9000060C00BC060C00B0060C00A4060B009952
:101EA000060C008D060B0082060B0077060B006CFB
:101EB000060B0061060A0057060B004C060A00429A
:101EC000060A0038060A002E060A0024060A001A2E
:101ED000060A001006090007060A00FD050900F4BD
:101EE000050900EB050900E2050900D9050900D044
:101EF000050900C7050900BE050900B5050800ADC4
:101F0000050800A50509009C050800940508008C3B
:101F1000050800840508007C050800740508006CAD
:101F2000050700650508005D050700560508004E19
:101F30000507004705070040050800380507003180
:101F40000507002A050700230507001C05060016E3
:101F50000507000F0507000805060002050700FB3E
:101F6000040600F5040700EE040600E8040600E29B
:101F7000040700DB040600D5040600CF040600C9F0
:101F8000040600C3040600BD040600B7040600B141
:101F9000040500AC040600A6040600A00405009B8E
:101FA00004060095040500900406008A04050085D7
:101FB000040500800406007A04050075040500701D
:101FC0000405006B04050066040500610405005C5F
:101FD00004050057040500520405004D040500489F
:101FE000040500430405003E0404003A04050035DE
:101FF000040500300404002C040500270404002319
:102000000405001E0404001A04040016040500114F
:102010000404000D04040009040500040404000085
:10202000040400FC030400F8030400F4030400F0BB
:10203000030400EC030400E8030400E4030400E0EC
:10204000030400DC030400D8030400D4030400D01C
:10205000030400CC030400C8030300C503030024E9
:10206000F404D9201BC40C5C0E9804C4095F0265FB
:10207000077101F405F900FB04B30048048700C1AF
:102080000369005803550003034500BE023A00846B
:1020900002310053022A002902250004022000E434
:1020A000011C00C8011900AF011700980114008439
:1020B000011300710110006101100051010E004375
:1020C000010D0036010B002B010B0020010B001548
:1020D0000109000C01090003010800FB000800F3DE
:1020E000000800EB000700E4000600DE000600D850
:1020F000000600D2000600CC000500C7000500C2A3
:10210000000500BD000400B9000400B5000400B1E2
:10211000000400AD000400A9000400A5000300A213
:102120000003009F0004009B00030098000300953B
:1021300000020093000300900003008D0002008B5A
:102140000003008800020086000200840003008172
:102150000002007F0002007D0002007B0002007987
:102160000002007700010076000200740002007295
:10217000000100710002006F0002006D0001006CA0
:102180000002006A000100690002006700010066A9
:1021900000010065000100640002006200010061AE
:1021A000000100600001005F0002005D0001005CB2
:1021B0000001005B0001005A0001005900010058B5
:1021C00000010057000100560001005500010054B5
:1021D00000010053000000530001005200010051B3
:1021E000000100500001004F0001004E0000004EB1
:1021F0000001004D0001004C0001004B0000004BAD
:102200000001004A000100490001004800000048A8
:1022100000010047000100460000004600010045A3
:10222000000000450001004400010043000000439D
:102230000001004200000042000100410000004196
:10224000000100400001003F0000003F0001003E8F
:102250000000003E0001003D0000003D0001003C88
:102260000000003C0000003C0001003B0000003B7F
:102270000001003A0000003A000100390000003976
:10228000000100380000003800000038000100376D
:102290000000003700010036000000360000003664
:1022A0000001003500000035000000350001003459
:1022B000000000340000003400010033000000334F
:1022C0000000003300010032000000320000003244
:1022D0000001003100000031000000310001003039
:1022E00000000030000000300001002F0000002F2F
:1022F0000000002F0000002F0001002E0000002E23
:102300000000002E0001002D0000002D0000002D17
:102310000000002D0001002C0000002C0000002C0B
:102320000000002C0001002B0000002B0000002BFF
:102330000000002B0001002A0000002A0000002AF3
:102340000000002A000100290000002900000029E7
:1023500000000029000000290001002800000028DA
:1023600000000028000000280000002800010027CD
:1023700000000027000000270000002700000027C1
:1023800000010026000000260000002600000026B4
:1023900000000026000100250000002500000025A7
:1023A0000000002500000025000000250001002499
:1023B000000000240000002400000024000000248D
:1023C0000001002300000023000000230000002380
:1023D0000000002300000023000000230001002271
:1023E0000000002200000022000000220000002265
:1023F0000000002200010021000000210000002157
:102400000000002100000021000000210000002148
:10241000000100200000002000000020000000203B
:10242000000000200000002000000020000000202C
:102430000001001F0000001F0000001F0000001F1F
:102440000000001F0000001F0000001F0001001E10
:102450000000001E0000001E0000001E000000C260
:102460003100001C260000F4190000D80F0000EB1A
:10247000080000C0040000750200004001000020B8
:10248000436F756E7420583A004265640045310010
:102490004500626564002C2073797374656D207348
:1024A000746F7070656421204865617465725F495E
:1024B000443A200048656174696E67204661696C22
:1024C00065640048656174696E67206661696C6562
:1024D00064004D3131322053687574646F776E003B
:1024E0004572723A204D415854454D50004D415867
:1024F00054454D5020747269676765726564004584
:1025000072723A204D494E54454D50004D494E543B
:10251000454D502074726967676572656400544860
:1025200045524D414C2052554E4157415900546837
:1025300065726D616C2052756E6177617900202F34
:10254000002042403A0020403A0020573A002057ED
:102550003A004265642048656174696E672E2E2ECC
:10256000005761697420666F722062656420686537
:102570006174696E672E2E2E0A0043616E6E6F7451
:10258000206F70656E207375626469722000534419
:102590002063617264206F6B0A006F70656E526F0A
:1025A0006F74206661696C65640A00766F6C756D86
:1025B000652E696E6974206661696C65640A004EF7
:1025C0006F20534420636172640A000A4D32340064
:1025D0004D3233202573002E0A006F70656E206621
:1025E00061696C65642C2046696C653A2000466917
:1025F0006C652073656C65637465640A00205369BB
:102600007A653A200046696C65206F70656E656476
:102610003A2000454E4420535542524F5554494E9E
:10262000450A002220706F73002220706172656E6F
:10263000743A2200535542524F5554494E45204357
:10264000414C4C207461726765743A220053756284
:1026500063616C6C204F766572666C6F77004578AD
:10266000636565646564206D617820535542524FFF
:102670005554494E452064657074683A0066726529
:10268000736800646F696E67002066696C653A2044
:10269000004E6F7720002F6175746F25632E6700E1
:1026A00070012C0190012701B0012201C0011D0120
:1026B000F00118011002130130020E01600209013D
:1026C00090020401C002FF000003FA004003F5007D
:1026D0008003F000D003EB002004E6007004E1006A
:1026E000E004DC004005D700C005D2004006CD0064
:1026F000D006C8008007C3003008BE00F008B9004B
:10270000C009B400B00AAF00B00BAA00D00CA500FD
:10271000000EA000500F9B00C010960050129100B8
:1027200000148C00C0158700B0178200B0197D001E
:10273000D01B7800001E730040206E0090226900BC
:10274000F024640040275F0090295A00E02B5500D8
:10275000102E500020304B0010324600E033410074
:1027600090353C001037370070383200A0392D000A
:10277000B03A2800A03B2300603C1E00103D190029
:10278000903D1400103E0F00703E0A00C03E050050
:10279000003F0000403FFBFF803FF6FFC03FF1FFDE
:1027A0002020506C616E6E6572427566666572427D
:1027B000797465733A20002046726565204D656D19
:1027C0006F72793A200020436F6D70696C65643ACE
:1027D000204D617920313420323032320A00204CD1
:1027E00061737420557064617465643A20323032CC
:1027F000312D31322D3235207C20417574686F7255
:102800003A20287468697369736B65697468622C0F
:1028100020456E6465722D33290A004D61726C6922
:102820006E20322E302E392E330A0020536F6674FC
:10283000776172652052657365740A002057617470
:102840006368646F672052657365740A0020427282
:102850006F776E206F75742052657365740A00205F
:1028600045787465726E616C2052657365740A00F8
:10287000506F77657255700A0073746172740A0044
:102880004732385859004D31303031006F6B006598
:1028900072726F722077726974696E6720746F202C
:1028A00066696C650A00446F6E6520736176696EB7
:1028B000672066696C652E0A004D323900456E64EA
:1028C00073746F70730025532025632025632025C2
:1028D0006320256300205A3A0020593A0020583AD4
:1028E00000656E6473746F7073206869743A2000B9
:1028F000000000010200090A0000000004030807AC
:1029000000000000000000000000000000000000C7
:10291000004D6F76652025736D6D004D6F766520D7
:10292000302E316D6D004D6F766520316D6D004D2F
:102930006F76652031306D6D004D6F766520417882
:102940006973004D6F7665204578747275646572A1
:10295000004D6F7665205A004D6F76652059004D09
:102960006F76652058005072696E742066726F6DC4
:10297000204D656469610050726F62696E67204620
:1029800061696C65640A0050726F62696E67204607
:1029900061696C656400205A3A200020593A200091
:1029A00042656420583A2000456E6465722D3320DC
:1029B00052656164792E005072696E74696E672E7B
:1029C0002E2E005072696E7420506175736564001C
:1029D000204500205A0020590020204D393220582F
:1029E0000053746570732070657220756E69740091
:1029F0003B20002E0A002028302D3130290020767F
:102A0000616C7565206F7574206F662072616E67EA
:102A10006500220A00556E6B6E6F776E20636F6DD6
:102A20006D616E643A20220000002200250028001B
:102A30002B0000002100240027002A0002020202CD
:102A40000202020204040404040404040303030352
:102A50000303030301010101010101010102040853
:102A60001020408001020408102040800102040868
:102A70001020408080402010080402014572726FCF
:102A8000722077726974696E6720746F20454550B3
:102A9000524F4D210A0020636F6C64206578747278
:102AA0007573696F6E2070726576656E7465640A01
:102AB0000020453A00205A3A0020593A00583A007E
:102AC0006F6B0A00526573656E643A20007C3C3E71
:102AD0005E2B3D3F2F5B5D3B2C2A225C0000DAD849
:102AE0009DDF11241FBECFEFD0E4DEBFCDBF84B782
:102AF00080933E3114BE0FB6F894A8958091600083
:102B0000886180936000109260000FBE12E0A0E028
:102B1000B1E0EEE4FBED01E00BBF02C007900D92C7
:102B2000AA37B107D9F721E3AAE7B2E001C01D92A5
:102B3000AE33B207E1F715E1C0E7D5E104C0219754
:102B4000FE010E9402EBCF36D107C9F70E94E9D9F6
:102B50000C949BED0C940000FC01A081B1811C92AF
:102B6000A281B3818C918F5F8C930280F381E02DE1
:102B700090818CE0989F800D1124E4E4FDE213AE77
:102B800084AF0895FC0184910895FC01808108952B
:102B9000119800C087FD43C0419800C0119A00C041
:102BA00000C0119800C086FD46C0419800C0119A2F
:102BB00000C000C0119800C085FD3BC0419800C016
:102BC000119A00C000C0119800C084FD30C0419827
:102BD00000C0119A00C000C0119800C083FD25C03C
:102BE000419800C0119A00C000C0119800C082FD39
:102BF0001AC0419800C0119A00C000C0119800C0CE
:102C000081FD0FC0419800C0119A00C000C011980A
:102C100000C0419800C0119A00C000C00895419AB8
:102C2000BCCF419AF0CF419AE5CF419ADACF419A91
:102C3000CFCF419AC4CF419AB9CF90E080E00895B8
:102C4000CF93DF93DB01F9019C919130C1F0943077
:102C500080F094509C938830D1F4808191810097CA
:102C600071F0019791838083480F591FEA01188200
:102C700006C08C3539F49C5F9C93943041F4DF910D
:102C8000CF9108958B3339F781E08C93F8CF208171
:102C90003181B9016F5F7F4F71836083420F531F92
:102CA000EA018883808191818F3591056CF7E7CFA8
:102CB0000F931F9381E00091982E1091992E2091EF
:102CC0009A2E30919B2E4091942E5091952E60918A
:102CD000962E7091972E041715072607370708F4CC
:102CE00080E01F910F91089590E080E00895209179
:102CF000F903833021F425FD0CC024FD0CC030E025
:102D0000A90102C0559547958A95E2F7CA018170DD
:102D1000089581E0089580E008958091150484FD70
:102D20000BC08091170487FD07C090911804937021
:102D300081E019F480E0089581E008952FEB280FD9
:102D40002A3108F047C0E22FF0E0809115049091FD
:102D50001604A0911704B091180404C0B695A79565
:102D6000979587952A95D2F780FD02C081700895C6
:102D7000E550FC4FE081EE2341F180915D07909199
:102D80005E07E80FF92FF11D808190ED980F9A30C2
:102D900030F08E3251F4818180538A3098F4F09370
:102DA000EE03E093ED0381E008958D3211F08B3254
:102DB00049F4818190ED980F9A3088F38E3211F4A6
:102DC0008281EACFF0E0E0E0EACF1092EE031092C9
:102DD000ED03E9CF80E00895CF93DF9385E4AEDF84
:102DE000882309F188E04091150450911604609100
:102DF000170470911804972F9170C92F90E0D92F64
:102E0000CC0FDD1F71FB222720F930E0220F331F8A
:102E1000220F331FC22B67FB442740F9C42B8C2B96
:102E2000DF91CF91089580E0DECF88DF882341F0E5
:102E300081E02091ED033091EE03232B09F480E033
:102E40000895A0E1B0E0E7E2F7E10C940BEBF82E77
:102E5000E62EB42E122F282F30E03E872D87262E07
:102E6000312C05E0029FA001039F500D11245A83CD
:102E70004983FA01E20DF31DEE0FFF1FEE0FFF1F56
:102E8000E156FB4F60817181828193819B01AC018E
:102E90000E941DED882309F40DC14B2D4F0D612FAC
:102EA0006E0D049FF0011124DF01A20DB31DAA0FC6
:102EB000BB1FAA0FBB1FA156BB4FCD90DD90ED905D
:102EC000FC904B0D049FA0011124DA01A20DB31D4B
:102ED000AA0FBB1FAA0FBB1FA156BB4F8D909D9081
:102EE000AD90BC90862F90E0A981BA81A80FB91F40
:102EF000AA0FBB1FAA0FBB1FA156BB4F4D905D90E1
:102F00006D907C90610F70E009811A81060F171F88
:102F1000000F111F000F111F01561B4FD8010D91FB
:102F20001D912D913C9109831A832B833C83E80FDB
:102F3000F91FEE0FFF1FEE0FFF1FE156FB4F008141
:102F40001181228133810D831E832F833887FA01FB
:102F5000E60FF71FEE0FFF1FEE0FFF1FE156FB4FAF
:102F6000208131814281538129873A874B875C8751
:102F7000A5019401C501B4010E941DED882319F03B
:102F8000812C912C5401A7019601C701B6010E9422
:102F90001DED882311F07501640129813A814B816F
:102FA0005C81CA01B9010E941DED882321F01982BC
:102FB0001A821B821C82A3019201C301B2010E94EA
:102FC0001DED882321F049805A806B807C80298503
:102FD0003A854B855C85CA01B9010E941DED8823A5
:102FE00021F019861A861B861C862D813E814F8111
:102FF0005885CA01B9010E941DED882341F08985D9
:103000009A85AB85BC858D839E83AF83B88785E029
:103010000D851E85809FD001819FB00D1124A20DCA
:10302000B31DAA0FBB1FAA0FBB1FA156BB4FBE8764
:10303000AD87A7019601C701B6010E9443EBA50128
:1030400094010E9442EB6B017C01A3019201C30138
:10305000B2010E9443EB29813A814B815C810E943D
:1030600042EB9B01AC01C701B6010E9443EB6B012F
:103070007C012D813E814F815885CA01B9010E9492
:1030800043EB29853A854B855C850E9442EB9B0189
:10309000AC01C701B6010E9443EB20E030E040E400
:1030A00050E40E94BAEBAD85BE856D937D938D9300
:1030B0009C9313976096E2E10C9427EBCF93DF93F8
:1030C000C0911907D0911A07209729F1609115072F
:1030D0007091160780911707909118070E9422ECB3
:1030E0006E5F7F4F24976C177D07ACF470931605C5
:1030F000609315050E94DAC9605A75418F4F9F4F42
:1031000060931705709318058093190590931A051D
:10311000DF91CF9108951092170510921805109223
:10312000190510921A05F4CFB0E0A0E0EAE9F8E141
:103130000C9414EB6B01E9014A3009F4D5C0453118
:1031400009F081C0DB011296ED91FC91F28096812D
:103150008781139A00C00000E6E2F0E03197F0F7B3
:10316000092F182FEF2CE29420EFE22230E1B32E4A
:10317000BF0CE80188EF0CDD00C0000086E290E0A3
:103180000197F0F7BFE1BF1508F49BC08F2D807742
:103190008068FEDC8E2DFCDC00C0000086E290E042
:1031A0000197F0F780E8F4DC80E0F2DC00C000007A
:1031B00086E290E00197F0F78AEFEADC00C00000B9
:1031C00086E290E00197F0F7005F1F4F8881807FD3
:1031D000DFDC89918295807FDBDCC017D107B1F7F6
:1031E00000C0000086E290E00197F0F7F394E0E180
:1031F000EE0EFB10BECF1398D6011296ED91FC9106
:1032000080819281980F92832181921708F09FC14B
:1032100094819F5F94839381890F821710F08FEFC1
:10322000820F8383458150E0440F551F70E060E0BA
:10323000868197810E9447ED81E0CDB7DEB7E9E056
:103240000C9430EBDEC1FB0102811381423309F49F
:1032500085C108F48DC1463409F475C1473409F4B9
:1032600082C14B3349F789812B81D80112967C9119
:10327000129713963C91213009F4BFC1233009F015
:10328000A0C148EF480F582F91E0341708F490E0A0
:1032900031E0541708F030E0492F432B61E0571715
:1032A00008F460E0462311F4932331F2FA8030E011
:1032B000F901E256FE4FD08026563E4FF901E080DC
:1032C00099C180EE8F0D8068807F62DC8F2D8295A2
:1032D000807F5EDC00C0000086E290E00197F0F79E
:1032E00080E856DC80E861CF0B9A1398399A4198B0
:1032F000099A119A139A00C0000086E290E00197A3
:10330000F0F788E790E0CEE9DFE0FE013197F1F7D2
:103310000197D9F788EF3CDC00C0000086E290E01E
:103320000197F0F780E234DC80E032DC00C000007E
:1033300086E290E00197F0F780E02ADC80E828DC64
:1033400000C0000086E290E00197F0F780E020DC0A
:1033500080E11EDC00C0000086E290E00197F0F7FB
:10336000CE010197F1F7CE010197F1F7CE01019758
:10337000F1F7CE010197F1F7CE010197F1F7CE01F8
:103380000197F1F7CE010197F1F7CE010197F1F71F
:10339000CE010197F1F7CE010197F1F7CE01019728
:1033A000F1F7CE010197F1F7CE010197F1F7CE01C8
:1033B0000197F1F72197F1F780E2EADB80E4E8DB9F
:1033C00000C0000086E290E00197F0F780E2E0DBC9
:1033D00080E6DEDB00C0000086E290E00197F0F7B7
:1033E000D0E0C0E08C2F80778068D2DB8D2FD0DBDF
:1033F00000C0000086E290E00197F0F780E8C8DBAB
:1034000080E0C6DB00C0000086E290E00197F0F7A4
:103410008AEFBEDB00C0000086E290E00197F0F783
:1034200080E2119800C0419800C0119A00C000C00D
:10343000119800C0419800C0119A00C000C01198B6
:1034400000C0419800C0119A00C000C0119800C08F
:10345000419800C0119A00C000C0119800C0419866
:1034600000C0119A00C000C0119800C0419800C06F
:10347000119A00C000C0119800C0419800C0119A74
:1034800000C000C0119800C0419800C0119A00C04F
:1034900000C0119800C0419800C0119A00C000C03F
:1034A000119800C0419800C0119A00C000C0119846
:1034B00000C0419800C0119A00C000C0119800C01F
:1034C000419800C0119A00C000C0119800C04198F6
:1034D00000C0119A00C000C0119800C0419800C0FF
:1034E000119A00C000C0119800C0419800C0119A04
:1034F00000C000C0119800C0419800C0119A00C0DF
:1035000000C000C00000E6E2F0E03197F0F7815023
:1035100009F087CF88EF3CDB00C0000086E290E036
:103520000197F0F7CF5FD05FC03209F05BCF80E04A
:103530002FDB80EC2DDB00C0000086E290E00197DD
:10354000F0F7139879CEF8018581888375CE80E0F5
:10355000CDB7DEB7E9E00C9430EB53C0B901C80138
:103560000E9430CA69CED80111968C91888364CEAE
:10357000443191F0473109F05FCE1882D80112969C
:103580008C911297898315968C91159781508A8317
:1035900013968C918B8350CED80115964C9115972C
:1035A00050E0440F551F70E060E016968D919C919D
:1035B0000E9447EDF801128280818150838314823A
:1035C0003BCE381708F438CE871708F435CEFA808A
:1035D000E12CD12C243070F46ACEBE01C8010E94C7
:1035E00030CA898198819D0D98838E0D8983FF0C47
:1035F00009F422CEF7FEF6CFF0CF58E0580F482F4F
:1036000043CE20911E04022E000C330B82171306AA
:1036100041F080931E046CE072E188E49DE20C941A
:1036200086CC08954F925F926F927F928F929F9275
:10363000AF92BF92CF92DF92EF92FF92CF93DF9340
:1036400000D000D0CDB7DEB70E94DAC96B017C0193
:10365000809127018F3FC1F10E94DAC980905C04FC
:1036600090905D04A0905E04B0905F0468197909A1
:103670008A099B0997FD28C08091202D9091212DCA
:103680008F5F8F71891701F1E0912701E43008F015
:10369000DEC024E0E29FF0011124EE55FE4F808150
:1036A0009181A281B38189839A83AB83BC8320E01B
:1036B00030E0A901BE016F5F7F4F89EA92E10E946D
:1036C000F3C18FEF809327010E949EA080916D042B
:1036D00082FFC6C080916B0481111DC091E0909360
:1036E0006B048091720489278093220710927204E0
:1036F00083E08093740110926D040E94DAC96C50CB
:103700007E4F8F4F9F4F60936E0470936F04809332
:103710007004909371048091670490916804A09163
:103720006904B0916A04A7019601281B390B4A0B62
:103730005B0BDA01C901B7FF05C0809175048823CE
:1037400009F402C2D701C6018C599F4FAF4FBF4F3A
:103750008093670490936804A0936904B0936A040B
:1037600060916C04062E000C770B77FF03C07195F7
:103770006195710990916C0480916604981373C0EF
:10378000633008F070C010926C0480916C048093D8
:103790006604643008F077C0809122078111F5C07B
:1037A0008091422D9091432D3BE28B31930709F09C
:1037B00010C180917501882309F4F9C0815080936C
:1037C00075010E94566E8090890790908A07A0909C
:1037D0008B07B0908C0781110E94636ED501C401E4
:1037E0003AE0B695A795979587953A95D1F70097C2
:1037F00051E0A507B10520F08FEF9FEFA0E0B0E00A
:103800009695879520917401211112C1309175040C
:103810003111C6C18091422D9091432D8B519B4215
:1038200009F4A5C1809176048111A1C1809162043F
:1038300090916304A0916404B0916504C81AD90AF8
:10384000EA0AFB0AF7FCA1C10E9431809EC1809167
:10385000760190917701A0917801B091790123CF01
:1038600010926B0458CF633009F08FCF80916C04B5
:1038700087FD07C081E0880F880F80936C0464E0A7
:1038800084CF8FEFF8CF8091450721E030E040E012
:1038900050E0882309F456C0809041079090420779
:1038A000A0904307B090440781149104A104B1048F
:1038B000E9F170E090E080E00E943BE420E030E03D
:1038C00040E85EE30E949CE42B013C01C701B60185
:1038D000681979098A099B090E943BE49B01AC01A4
:1038E000C301B2010E94BAEB20E030E04AE754E4A1
:1038F0000E949CE44B015C0120E030E040EA52E48D
:103900000E94A6EC24E630E040E050E087FF12C0C1
:1039100020E030E040EF51E4C501B4010E94A6EC84
:103920002AE030E040E050E087FF04C021E030E0D2
:1039300040E050E0C0924107D0924207E092430736
:10394000F0924407A0916C040A2E000CBB0B0E945D
:10395000ADEA24E030E040E050E00E9487EA809148
:103960003D0790913E07A0913F07B0914007820F1D
:10397000931FA41FB51F80933D0790933E07A0930C
:103980003F07B093400710926C04D701C6018856D8
:10399000954CAF4FBF4F8093620490936304A09304
:1039A0006404B093650481E080937401F9CE8CE0E7
:1039B000809375018091600490916104009729F0D3
:1039C0000197909361048093600481E08093740177
:1039D000F8CE89539A4A09F0F4CE809175019FEF91
:1039E000980F909375018111ECCE809146078F5FFF
:1039F000809346079091470724E0891708F02CE050
:103A000020937501981710F41092460781E0809377
:103A10007401D701C6018856954CAF4FBF4F8093B4
:103A2000620490936304A0936404B0936504C9CEC8
:103A3000009741F040916004509161044817590784
:103A400008F0E8CE8091750481111DC0223038F055
:103A5000243008F44BC0243011F41092740180918A
:103A6000812D811105C081E08093812D0E9495CA2E
:103A700080914A2D90914B2D0E946FCA81E08093D6
:103A80003C078093750483E0BCDD81E08093682D62
:103A9000E091422DF091432D099510923C078091C1
:103AA0007504811127C0109222078091422D9091B8
:103AB000432D8B519B4209F0B5CE0E94DAC9DC013F
:103AC000CB018C199D09AE09BF09809060049090CC
:103AD0006104B12CA12C88169906AA06BB0608F031
:103AE00099CE909361048093600494CE81E080939A
:103AF0007401B5CF88E49DE20E9456CC91E081111B
:103B000001C090E090937504882369F28091422D62
:103B10009091432D8B519B42B9F40E94DAC9DC018C
:103B2000CB018C199D09AE09BF09C0906004D090EB
:103B30006104F12CE12CC816D906EA06FB0620F434
:103B400090936104809360040F900F900F900F90FA
:103B5000DF91CF91FF90EF90DF90CF90BF90AF902B
:103B60009F908F907F906F905F904F90089558E94D
:103B7000C50E5AE3D51EE11CF11CC0926204D0921E
:103B80006304E0926404F0926504809175048111ED
:103B9000DBCF809174018130B9F610927401D4CFDB
:103BA000009709F470CF46CFEF92FF920F931F93C7
:103BB000CF93DF93EC018B017A018A859B85861771
:103BC000970731F0888199810E9486CC1B870A87EC
:103BD000B701888199810E940DC72E813F81820F94
:103BE000932F911D9F838E8390E080E0CDB7DEB749
:103BF000E6E00C9433EBB0E0A0E0E1E0FEE10C94F1
:103C000013EBEC017B018A018A859B858617970758
:103C100031F0888199810E9486CCFB86EA8688856E
:103C20009985019609F5CC80DA808E81D80EA8801E
:103C3000B980D5015596ED91FC91C5010995C80E45
:103C4000780110E0F70121917F0121111FC08E81C1
:103C50009F81810F911D9F838E8390E080E0CDB77F
:103C6000DEB7EAE00C942FEBEE80FF80B80188818C
:103C700099810E940DC78E0D9F2D911D2885398534
:103C80002817390780F681E090E0E9CF4C2D6D2DA3
:103C9000C5010E94DECCD80E180FD4CFB0E0A0E052
:103CA000E4E5FEE10C9416EBEC01D62E1CAD0BAD59
:103CB0007C0184E0E80EF11CE98DFA8DC7010995BD
:103CC000412F480F2D2D602FC7010E94DECC9BADE8
:103CD000890F8BAF81E090E0CDB7DEB7E7E00C94C1
:103CE00032EBA6E0B0E0E7E7FEE10C940CEB7E835C
:103CF0006D83342EFC014080518062807380C3014B
:103D0000B20120E13EE040E050E00E9465EA490156
:103D10005A0189018CE3C82ED12CE12CF12CC3016E
:103D2000B201A70196010E9465EA69837A838B83B9
:103D30009C83CA01B901A70196010E9465EA6B0143
:103D40007C01332061F1C301B20120E831E541E09B
:103D500050E00E9465EA29013A015901DF92CF92B1
:103D6000C40168E170E00E94DBEA9F938F935F9249
:103D70004F9286E191E19F938F93FE81FF938D8116
:103D80008F930E94D0E30FB6F894DEBF0FBECDBF75
:103D900088E0FAE04F165104D8F089E019C0811488
:103DA0009104D1F48A818F9399819F93DF92CF926E
:103DB0008AE091E19F938F93EE81EF93FD81FF93D2
:103DC0000E94D0E30FB6F894DEBF0FBECDBF85E0F2
:103DD0002696E1E10C9428EB0436110568F4DF9295
:103DE0006F939F928F928EEF90E19F938F939E811E
:103DF0009F93ED81EF93E4CFDF926F939F928F9229
:103E000084EF90E19F938F939E819F93ED81EF9339
:103E10000E94D0E30FB6F894DEBF0FBECDBF86E0A0
:103E2000D7CF8091ED039091EE03009731F04AE0F7
:103E300050E070E060E00C9458E260E070E0CB018C
:103E400008958091ED039091EE03009731F04AE0E0
:103E500050E070E060E00C942BE160E070E0CB019A
:103E60000895EFDF97FD0AC0ECDF6F3F7105810514
:103E7000910509F02CF4E5DF862F089580E0089580
:103E80008FEF0895CF93C62F0E941517882311F046
:103E9000E8DFC82F8C2FCF9108958091ED0390918A
:103EA000EE03892B39F0DDDF91E0811101C090E054
:103EB000892F089591E0FCCFCF93DF93C82FD62FA1
:103EC0000E941517882321F0E8DFDF91CF91089534
:103ED0008C2F0E949E168111F8CF8D2FF6CFB1DF67
:103EE000CB010895CF93DF93EB010E941517882330
:103EF00011F0F5DFEC01CE01DF91CF9108950F9322
:103F00001F93CF938091ED039091EE030097D9F02A
:103F1000FC018F01C1912C2F2F7D81F0C53411F050
:103F2000C536B9F7F801108270E060E00E94D5DF75
:103F3000F801C083CF911F910F91089570E060E068
:103F40000E94D5DFF7CF60E070E0CB01F3CFCF92D6
:103F5000DF92EF92FF926A017B010E94151788237E
:103F600019F0CDDF6B017C01C701B601FF90EF9026
:103F7000DF90CF900895CF92DF92EF92FF92CF9390
:103F8000C82F0E94DAC96B017C0124EA30E74DE7B3
:103F90005FE360913201709133018091340190911F
:103FA00035010E9437E487FD18C08AEF90E0A0E059
:103FB000B0E08C0D9D1DAE1DBF1D80935C049093E1
:103FC0005D04A0935E04B0935F04C0932701CF917A
:103FD000FF90EF90DF90CF90089580E090E0DC01BB
:103FE000E8CFCF9380912104811154C010927F2D8E
:103FF0001092802D1092812D10924D2D10924C2DEB
:1040000010924F2D10924E2D1092512D81E08093E1
:10401000502D82E28093522D1092572D1092562DE2
:10402000EBE6FDE229E73DE28FEF81932E173F0794
:10403000E1F7C1E0C093682D26E53CEA30935E2DA0
:1040400020935D2DC0935F2D1092602D1092612DF5
:1040500090E49093622D1092632D25E53CEA309315
:104060007A2D2093792D2FE131E030934B2D209341
:104070004A2D9EE190936F2D91E19093702D9CE1DC
:1040800090936D2D80936C2D80936B2D0E9495CA1B
:10409000C093210481E08093200485E391E1909313
:1040A0007F2C80937E2C1092812C1092802C539820
:1040B0005B9A52985A9A3898409A0E949EA0109201
:1040C0006C04CF910895FC0180E0309749F0949101
:1040D000992331F0907C903809F08F5F3196F7CFBB
:1040E0000895009751F0FC0180E09191992331F0FF
:1040F000907C9038D1F38F5FF8CF80E00895B0E0E6
:10410000A0E0E5E8F0E20C9413EBEC015B018A011E
:10411000FB01099587FD10C0C82ED12CF12CE12C94
:104120002196F801C082D182E282F382CE01CDB71E
:10413000DEB7EAE00C942FEB982F907E903CA9F428
:104140008F7190E0B0E0A0E06C017D0156E0CC0CF6
:10415000DD1CEE1CFF1C5A95D1F7CE010196F5012E
:1041600009958F73C82A2296DCCF982F907F903EB6
:1041700011F58F7090E0B0E0A0E06C017D0136E0B9
:10418000CC0CDD1CEE1CFF1C3A95D1F7CE0101963C
:10419000F50109958F73C82A46E0CC0CDD1CEE1C96
:1041A000FF1C4A95D1F7CE010296F50109958F7350
:1041B000C82A2396B6CF982F987F903F79F58770BD
:1041C00090E0B0E0A0E06C017D0186E0CC0CDD1C4D
:1041D000EE1CFF1C8A95D1F7CE010196F5010995D9
:1041E0008F73C82A96E0CC0CDD1CEE1CFF1C9A9540
:1041F000D1F7CE010296F50109958F73C82A26E002
:10420000CC0CDD1CEE1CFF1C2A95D1F7CE010396C9
:10421000F50109958F73C82A249683CF982F907C37
:10422000903841F4807C803869F42196CE01F50104
:104230000995F8CF8E7F8D3F28F02196CE01F501AC
:104240000995F8CFC12CD12C76016BCF9CE0899FCA
:10425000802D112491E0980F90931F042CE0280FDB
:104260002093480730E02E5F3F4F40917C2D42174E
:10427000130619F014F080E0089520917E2D921716
:10428000D0F7662341F08E5F0E94BDCB8091480736
:104290008E5F0E94BDCB8091480790917C2D89173D
:1042A00050F320917E2D90911F04291720F3109236
:1042B0007F2D8093802D81E00895ACE0B0E0E3E6AF
:1042C000F1E20C9415EB6F3F71058105910509F042
:1042D00070F484E49DE2E2DCE0914C2DF0914D2DF0
:1042E0003196849190E02C96E8E00C9431EBF090BC
:1042F0007F2DE090802D2091200421110FC044EDEE
:1043000050E16E2D8F2D0E9437CD90E080E0F80EA9
:10431000F0927F2DE092802D9927E5CFC0904C2D13
:10432000D0904D2D28E43DE23A8329832F2D30E0B3
:104330003C832B832E2D30E03E832D8318861F82F5
:104340002FEF3FEF3A8729871C861B860BEF1DE175
:104350009E012F5F3F4FAB01BC01C6010E9422B0FE
:10436000B60188E49DE20E9486CC8F819885CFCFEC
:104370004F925F926F927F928F929F92BF92CF9255
:10438000DF92EF92FF920F931F93CF93DF93CDB7FE
:10439000DEB728970FB6F894DEBF0FBECDBF7C0105
:1043A0006A014901FB0190818CE0989F800D1124E6
:1043B000982FF7012081822F880F820F880F80931A
:1043C0007F2D9093802D4115510561F1FA82E9828C
:1043D0007C836B8301111FC0AE014B5F5F4FB40143
:1043E000C6018DDE6C016D817E818F81988561159E
:1043F000710581059105B1F060DFF70180818F5F64
:104400008083853148F3CE0101960E94AC15E4CF3C
:10441000B12C860129C08A01B12C26C04528462826
:104420004728B1F728960FB6F894DEBF0FBECDBF70
:10443000DF91CF911F910F91FF90EF90DF90CF9080
:10444000BF909F908F907F906F905F904F90089556
:10445000B39407C0B1102DC001151105C9F20F5F4B
:104460001F4F01151105A9F2AE014B5F5F4FB4015B
:10447000C60145DE6C014D805E806F8078844114FA
:10448000510461047104A9F0F0E24F165104610473
:10449000710401F3D301C2018D97A109B1090297FB
:1044A000A105B10530F04BE24416510461047104DA
:1044B00079F6F7018081482F4B0D5527551F46315E
:1044C000510534F0853020F0CE0101960E94AC15E4
:1044D00081E0411451046104710409F480E0B80ED4
:1044E000F70180818B0D8083BB2009F497CFBA94AC
:1044F000AE014B5F5F4FB401C80101DE8C016D81DD
:104500007E818F819885D9DEEFCFACE0B0E0EBE81B
:10451000F2E20C9415EBF0907F2DE090802D20912D
:104520002004211112C044EB50E16E2D8F2D0E940A
:1045300037CD90E080E0F80EF0927F2DE092802D54
:1045400099272C96E8E00C9431EBC0904C2DD0903C
:104550004D2D28E43DE23A8329832F2D30E03C8322
:104560002B832E2D30E03E832D8318861F827A8781
:1045700069871C861B860BEF1DE19E012F5F3F4F55
:1045800042EC55E1BC01C6010E94B7B0B60188E417
:104590009DE20E9486CC8F819885CDCFA4E0B0E0CB
:1045A000E4EDF2E20C9411EB7C01062F5A01122F7C
:1045B000862F660F990B9C012A563E4F690186E0B3
:1045C000882E912C11160CF03DC0AE014F5F5F4F4D
:1045D00062EC75E1C70193DD7C0169817A818B8191
:1045E0009C81611571058105910561F16D3371053E
:1045F0008105910509F450C06E377105810591055B
:1046000009F44AC06A3271058105910501F507FF79
:1046100011C08BE291E10E3F11F087E291E136E0AB
:104620001302B001112471DF66E070E00E94EFEA2E
:10463000161B60C065E470E080E090E03EDE115043
:1046400069F510E0812F2496ECE00C942DEB643298
:1046500071058105910571F4A114B104D1F0E6E072
:104660001E02B0011124C50150DFB4010E94EFEA1F
:10467000161BA8CF603471058105910551F41150C6
:10468000F6016081062E000C770B880B990B15DE66
:1046900099CF13DE115096CF07FDBBCF61E0898122
:1046A0009A81AB81BC81CD97A105B10509F460E089
:1046B000600F6A30A4F01150862F6AE00E94CEEAA3
:1046C000092F682F880F770B605D7F4F072E000C36
:1046D000880B990BF2DD112309F4B3CF602F062E5E
:1046E000000C770B605D7F4F072E000C880B990B39
:1046F000E4DD1150112309F4A4CF86E01802B001C3
:104700001124C70102DF66E070E00E94EFEA161B89
:1047100099CFACE0B0E0EFE8F3E20C9415EBF09049
:104720007F2DE090802D20912004211112C044E9BA
:1047300050E16E2D8F2D0E9437CD90E080E0F80E75
:10474000F0927F2DE092802D99272C96E8E00C9432
:1047500031EBC0904C2DD0904D2D28E43DE23A83B2
:1047600029832F2D30E03C832B832E2D30E03E8398
:104770002D8318861F827A8769871C861B860BEF1C
:104780001DE19E012F5F3F4F45EC55E1BC01C60185
:104790000E94B7B0B60188E49DE20E9486CC8F816A
:1047A0009885CDCF6FEF7FEFB4CFB0E0A0E0EBED19
:1047B000F3E20C9413EB5C016B0185DCE82EC6017F
:1047C00090DCF12C03E110E0081B1109C5E20E1585
:1047D0001F050CF4CFE18C2F90E09C012E5F3F4F22
:1047E00040917C2D4217130609F08CF50997209112
:1047F0007E2D281719065CF140914A0750914B070E
:104800006091490710927F2DC093802D25E1C5014D
:10481000C5DED1E0C114D104A9F06AE370E080E004
:1048200090E04BDD0E151F05A4F4C45F80917C2D34
:10483000C81740F020917E2D4C2F4950550B24175E
:1048400015064CF4CDB7DEB7EAE00C942FEBD0E0C0
:10485000E1CFDD23B9F3802F880F080F000F0093FD
:104860007F2DC093802D60E270E080E090E025DD38
:10487000C60198DFE7CFACE0B0E0E1E4F4E20C94ED
:1048800011EB982F862F6A017901B02E692FDEDC9B
:10489000882309F486C010912004C701002371F118
:1048A00012DCA82E80904C2D90904D2D111141C0FE
:1048B0002FEF3FEF122F23E12A1940914A07509121
:1048C0004B0760914907C60169DEAA2009F469C057
:1048D000B6E08B9F600111246AE370E080E090E015
:1048E000ECDC57E0C516D10408F441C060E270E08A
:1048F00080E090E0E2DCC81AD90AF3CFF2DBA82E00
:1049000080904C2D90904D2D112391F2FE01339605
:104910008AE0DF011D928A95E9F788E49DE29A8397
:10492000898304ED1DE19E012F5F3F4F45EC55E16A
:1049300012C0FE0133968AE0DF011D928A95E9F7E5
:1049400088E49DE29A83898304ED1DE19E012F5F37
:104950003F4F42EC55E1B701C4010E94B7B0B4012A
:1049600088E49DE20E9486CC2F813885A3CF4091B8
:104970004807212F30E0A6E0AA9EC00111242E5F37
:104980003F4F281739070CF49C0180E8821B809365
:104990007F2D4093802DBB2041F06FEF7FEFC7014B
:1049A000B4DD2C96ECE00C942DEBC701FBDEF9CFC7
:1049B000CF936091190770911A07072E000C880B8E
:1049C000990B0E943DE4C1E0209115073091160734
:1049D00040911707509118070E94A6EC18160CF08A
:1049E000C0E08C2FCF910895CF93DF939091601208
:1049F00093FD29C0C82F89E40E941517882349F127
:104A000030DA80911E0790911F07D0E0833791051F
:104A100014F083E790E090931A07809319070E949F
:104A20005E18C6DF811112C083ED9EE060E00E9437
:104A30009D9461E06C278C2F0E94777DCC2319F028
:104A40008D2F0E94BB66DF91CF91089582EE9EE08C
:104A5000EDCF83E50E941517D82F811107C0CC2315
:104A600091F382E50E941517882369F338DACECFD7
:104A70000C943DB14F925F926F927F928F929F9272
:104A8000BF92CF92DF92EF92FF920F931F93CF933B
:104A9000DF9310921A04109219042FE320931D043F
:104AA00010921C0410921B0410921504109216040C
:104AB00010921704109218049C01F90190812F5F45
:104AC0003F4F9032D1F39E34C9F4818190ED980F1D
:104AD0009A3020F08D3211F08B3281F432969F01A2
:104AE0002F5F3F4F808180538A3008F46DC09F0153
:104AF0002F5F3F4F8081803209F468C0F0935E07DA
:104B0000E0935D078F010F5F1F4FC0816AE270E085
:104B1000C8010E9461ED009731F0FC01319780815E
:104B20008032E1F31182CD3421F0C43511F0C73465
:104B3000D9F5F80180810F5F1F4F8032D1F3805388
:104B40008A3090F5C0931D0490E080E06AE0AF01E8
:104B50004F5F5F4F689F9001699F300D1124C9011D
:104B6000C0972081820F911D27FD9A95FA0120811F
:104B700020532A3060F390931C0480931B04DF01C0
:104B800031962C912032D9F3CD3461F58E319105D7
:104B900039F0F0F48731910519F08C31910511F558
:104BA000B0931A04A0931904DF91CF911F910F9134
:104BB000FF90EF90DF90CF90BF909F908F907F906D
:104BC0006F905F904F900895F90189CFF9018FCFD1
:104BD0008537910538F08737910510F3803A13E057
:104BE0009107F1F280905D0790905E0740E050E001
:104BF000BA0130E020E0C12CD12C7601C394FD0134
:104C00003196DC91DD2309F484C0D132F1F4CD3446
:104C1000E1F480329105C9F44093150450931604D1
:104C20006093170470931804F0931A04E093190426
:104C300063E270E0CF010E9461ED009709F4B4CF08
:104C4000FC011082B1CFDF01DACFD154DA3108F0A4
:104C50005BC0DF011D91103291F0A0EDA10FAA30D1
:104C6000E8F01E3271F4A181A053AA30B8F02115EA
:104C7000310519F49F0121503109B12C13C0FD01F8
:104C8000E8CF1D3211F01B3291F7A181B0EDBA0FC0
:104C9000BA3020F0AE3259F7A281E6CFBE2EB81856
:104CA000309759F3AD2FB0E02601370104C0440C12
:104CB000551C661C771CDA95D2F7442955296629BC
:104CC0007729A550BC4FBC92A081A154AA3108F409
:104CD000BACFDF01D191DD2309F491CF00EDB02EE1
:104CE000BD0E19E01B15A8F713EDB12EBD0E11E096
:104CF0001B1578F7DB3269F3FD013196DC91D03278
:104D000009F07DCFDF01F8CF21153105E9F69D01CE
:104D1000DBCF30931A042093190440931504509369
:104D2000160460931704709318043ECFFC0165913C
:104D3000759185919491089580914D07882319F07C
:104D400080E00E94029C80E008958F929F92AF9233
:104D5000BF92CF92DF92EF92FF92CF93DF93EC015D
:104D60008090970490909804A0909904B0909A0431
:104D700020E030E0A901C501B4010E9437E4882396
:104D800009F452C0C880D980EA80FB80A70196014F
:104D9000C501B4010E9437E418160CF04AC02091F6
:104DA000E9033091EA034091EB035091EC03C70112
:104DB000B6010E9437E4882321F1C092E903D09222
:104DC000EA03E092EB03F092EC032091E5033091CB
:104DD000E6034091E7035091E803C701B6010E9442
:104DE0009CE49B01AC0160E070E080E89FE30E94DE
:104DF00042EB609314017093150180931601909318
:104E00001701609114017091150180911601909124
:104E10001701DF91CF91FF90EF90DF90CF90BF907F
:104E2000AF909F908F90089560E070E080E89FE3DE
:104E3000F0CF60E070E0CB01ECCFB0E0A0E0E3E2C7
:104E4000F7E20C940DEBEC01209103053091040581
:104E50004091050550910605688179818A819B8181
:104E60000E9442EB4B015C0120910705309108053F
:104E70004091090550910A056C817D818E819F8149
:104E80000E9442EB6B017C01A501940160910C0131
:104E900070910D0180910E0190910F010E9437E4F5
:104EA000882309F45AC080920C0190920D01A092BF
:104EB0000E01B0920F012091DD033091DE0340918D
:104EC000DF035091E003C501B4010E949CE42B0173
:104ED0003C010E9453EC4B015C0120E030E0A90151
:104EE0000E9437E487FD6EC020E030E040E850E4E7
:104EF000C501B4010E94A6EC181634F4812C912C43
:104F0000C0E8AC2EC0E4BC2EA5019401C301B201DF
:104F10000E9442EB2B013C0120E030E0A9010E94FD
:104F200037E487FD53C04092D5035092D603609278
:104F3000D7037092D803C501B4010E9422EC60939C
:104F4000D303062E000C770B6F5F7F4F6430710523
:104F500014F064E070E06093D103D0910A011091E5
:104F6000D303A70196016091100170911101809106
:104F70001201909113010E9437E4811130C0D113C6
:104F800088C02091B9033091BA034091BB0350917E
:104F9000BC036091D5037091D6038091D7039091A3
:104FA000D8030E949CE42091BD033091BE03409140
:104FB000BF035091C0030E9443EBCDB7DEB7E0E1E1
:104FC0000C9429EB812C912C54019ECF1092D50387
:104FD0001092D6031092D7031092D803ACCFC09290
:104FE0001001D0921101E0921201F0921301209170
:104FF000E1033091E2034091E3035091E403C701E0
:10500000B6010E949CE44B015C010E9453EC6B01D1
:105010007C0120E030E0A9010E9437E487FDFDC05B
:1050200020E030E040E850E4C701B6010E94A6EC61
:10503000181634F4C12CD12CB0E8EB2EB0E4FB2EC2
:10504000A7019601C501B4010E9442EB4B015C012E
:1050500020E030E0A9010E9437E487FDE2C08092A1
:10506000D9039092DA03A092DB03B092DC03C7016C
:10507000B6010E9422EC6093D403062E000C770B3D
:105080006F5F7F4F6430710514F064E070E06093EF
:10509000D203C091D403D11305C080910B018C17AA
:1050A00009F470C08091D3039091D40390930B01C5
:1050B00080930A010C2E000CDD0B25E01203C001C9
:1050C0001124FC01EC0FFD1FEE0FFF1FEE0FFF1F61
:1050D000E156FB4F20813181428153812093CD03E2
:1050E0003093CE034093CF035093D0030091D2036B
:1050F000002E000C110BFC01E00FF11FEE0FFF1F43
:10510000EE0FFF1FE156FB4F608171818281938119
:105110000E9442EB6093C9037093CA038093CB0350
:105120009093CC032091D10335E02303F0011124A7
:10513000CE0FDF1FCC0FDD1FCC0FDD1FC156DB4FA5
:10514000288139814A815B812093C5033093C6034E
:105150004093C7035093C803E00FF11FEE0FFF1FEA
:10516000EE0FFF1FE156FB4F6081718182819381B9
:105170000E9442EB6093C1037093C2038093C30308
:105180009093C4038090D9039090DA03A090DB033E
:10519000B090DC032091C9033091CA034091CB0346
:1051A0005091CC03C501B4010E949CE42091CD0331
:1051B0003091CE034091CF035091D0030E9443EB36
:1051C0006B017C01C092BD03D092BE03E092BF038D
:1051D000F092C0032091C1033091C2034091C303F8
:1051E0005091C403C501B4010E949CE42091C50301
:1051F0003091C6034091C7035091C8030E9443EB0E
:10520000A70196010E9442EB6093B9037093BA0321
:105210008093BB039093BC03B4CEC12CD12C7601F8
:105220000FCF1092D9031092DA031092DB03109281
:10523000DC031DCFACE0B0E0E0E2F9E20C941AEB45
:10524000182F882379F020E030E0A90160910B0548
:1052500070910C0580910D0590910E050E9437E428
:105260008823F1F0809195048117D1F00E944D6C54
:105270008CE0EEE7F1E0DE01119601900D928A9547
:10528000E1F7CE010196D9DD80919504882361F084
:1052900089EA92E10E946F6C109295040E948F7AC5
:1052A0002C96E3E00C9436EB81E08093950489EA38
:1052B00092E10E948B6BF2CF80E0BCDF1092070579
:1052C000109208051092090510920A051092030524
:1052D00010920405109205051092060510920F0514
:1052E00010921005109211051092120510920B05E4
:1052F00010920C0510920D0510920E05EFE9F4E0E6
:1053000023E035E080E090E0A0ECBFE7808391836C
:10531000A283B38384839583A683B7838087918791
:10532000A287B38784879587A687B787808B918B61
:10533000A28BB38B74962E173F0741F708954F92B7
:105340005F926F927F928F929F92AF92BF92CF9215
:10535000DF92EF92FF921F93CF93DF93EC01162F12
:1053600020919704309198044091990450919A04A7
:10537000688179818A819B810E9437E4882309F4BE
:1053800097C0B090950480E055DFC880D980EA804E
:10539000FB8020E030E0A901C701B6010E94A6EC25
:1053A00018161CF0C12CD12C7601C0929704D09213
:1053B0009804E0929904F0929A042DEB37E346E8C2
:1053C00055EBC701B6010E94A6EC87FD0BC02DEB83
:1053D00037E346E855E3C701B6010E9437E41816E3
:1053E0000CF076C0A701960160E070E080E89FE3D2
:1053F0000E94BAEB6093E5037093E6038093E703A2
:105400009093E80380EF9FEFA9E7B4EC8093E90362
:105410009093EA03A093EB03B093EC03BB2009F451
:1054200047C04090A9125090AA126090AB127090A1
:10543000AC128090AD129090AE12A090AF12B090CE
:10544000B012C090B112D090B212E090B312F090AE
:10545000B41281E0EFDE112359F12091A9123091AD
:10546000AA124091AB125091AC12C301B2010E943A
:1054700037E481111BC02091AD123091AE124091E2
:10548000AF125091B012C501B4010E9437E48111EE
:105490000DC02091B1123091B2124091B3125091CF
:1054A000B412C701B6010E9437E481110E94BD7A8F
:1054B000DF91CF911F91FF90EF90DF90CF90BF9041
:1054C000AF909F908F907F906F905F904F900895D6
:1054D00060E070E0CB018ECF8F929F92AF92BF922F
:1054E000CF92DF92EF92FF92C0900B05D0900C0507
:1054F000E0900D05F0900E0520E030E0A901C70115
:10550000B6010E9437E48823E1F1A701960160E02B
:1055100070E080E89FE30E94BAEB6B017C01809011
:105520000F0590901005A0901105B090120520E095
:1055300030E0A901C501B4010E9437E4882329F1B4
:10554000A501940160E070E080E89FE30E94BAEB5F
:10555000C092DD03D092DE03E092DF03F092E0031D
:105560006093E1037093E2038093E3039093E40379
:10557000FF90EF90DF90CF90BF90AF909F908F9073
:105580000895C12CD12C7601CACF60E070E0CB0128
:10559000DFCF2091B7033091B803280F391F309324
:1055A000B8032093B7032091280530912905280FCF
:1055B000391F3093290520932805209183043091C9
:1055C0008404820F931F909384048093830408952E
:1055D000CF92DF92EF92FF926B017C0183E3C816BA
:1055E000D104E104F10470F082E3C81AD108E108A3
:1055F000F10862E370E080E090E00E9451C90E94EF
:10560000F5A3ECCFC701B6010E9451C90E94F5A3D2
:10561000FF90EF90DF90CF90089590919C2E94FB97
:10562000882780F994FF06C081E09091872C911122
:1056300001C080E00895ACE0B0E0E1E2FBE20C9450
:105640000DEB1092450780912207109222078823C4
:1056500061F020E040E070E060E085E39EE90E94B8
:10566000187F2C96E0E10C9429EB209136013091C3
:10567000370140913D0750913E07CA01820F931FA9
:105680002436310509F01BC44730510544F0069714
:105690008A3091050CF022C48AE090E029C4069675
:1056A0004A3F5F4FACF380913C07882309F4BAC1AD
:1056B0006091380570913905072E000C880B990B05
:1056C0000E943DE411E02091340530913505409170
:1056D0003605509137050E94A6EC18160CF010E024
:1056E00067D98111126010935B04C090A912D09009
:1056F000AA12E090AB12F090AC128091AD12909192
:10570000AE12A091AF12B091B01289879A87AB8781
:10571000BC878090B1129090B212A090B312B0905A
:10572000B41220E030E040E251E4C501B4010E942F
:105730009CE420E030E048EC52E40E949CE42B0121
:105740003C0120E030E0A901C501B4010E9437E42A
:1057500020E030E040EA50EC87FD04C020E030E07B
:1057600040EA50E4C301B2010E9443EB20E030E084
:1057700040E251E40E94BAEB0E9422EC4B015C0132
:1057800080E2B7FE09C0B094A09490948094811CEC
:10579000911CA11CB11C8DE28093770460E290E122
:1057A000891697E29906A104B1048CF0C501B401F1
:1057B00020E137E240E050E00E9487EACA01B901E7
:1057C0002AE030E040E050E00E9487EA605D6093AC
:1057D000780460E2A8EE8A16A3E09A06A104B10458
:1057E0008CF0C501B40128EE33E040E050E00E94A7
:1057F00087EACA01B9012AE030E040E050E00E94A7
:1058000087EA605D60937904C501B40124E630E065
:1058100040E050E00E9487EA8AE0482E512C612C3B
:10582000712CCA01B901A30192010E9487EA605D4F
:1058300060937A04C501B401A30192010E9487EA32
:105840004B01CA01B901A30192010E9487EA882095
:1058500009F45EC32EE220937B04605D60937C04B8
:10586000B0E38B0E80927D0467E774E083E594E0FB
:105870000E946CED20E030E0A901C701B6010E9452
:1058800037E420E030E040E05FEB87FD04C020E03B
:1058900030E040E05FE3C701B6010E9443EB0E94A5
:1058A00022ECCB010E948F7DBC018EE494E00E942B
:1058B0006CED20E030E0A90169857A858B859C85B7
:1058C0000E9437E420E030E040E05FEB87FD04C059
:1058D00020E030E040E05FE369857A858B859C8538
:1058E0000E9443EB0E9422ECCB010E948F7DBC0101
:1058F00089E494E00E946CED0E9445947C010E9432
:10590000E27C4B015C018D829E82AF82B886162FAD
:10591000809126018E15E1F0E0922601C70164E630
:1059200070E00E94DBEA28E4269FC001279F900DCB
:105930001124BC0190E080E00E943BE42AE037EDB6
:1059400043E25CE30E949CE40E9427EC60934804DD
:1059500080912501181709F465C08092250141E066
:10596000E0E88E16E1E59E06E1E0AE06B10408F43B
:1059700040E068E374E0CE0105960E94711E982F06
:10598000990F990F891B855A80933704F82DF3706E
:105990008F2E09F047C02091330430913404409198
:1059A000350450913604211531054105510509F0A2
:1059B000C1C20E94E27C4B015C010E944594FC0143
:1059C000009799F0A0E1B7E2A81BB90BA5019401DB
:1059D0000E94A3EA9F0150E040E00E9465EA211581
:1059E00031054105510509F0A5C2E114F104A9F002
:1059F000A0E1B7E2AE19BF092D813E814F815885E4
:105A00000E94A3EA970150E040E00E9465EA211558
:105A100031054105510509F08DC2109229048BE52D
:105A2000809328040E94DAC9009123041091240471
:105A300020912504309126046B017C01C01AD10A03
:105A4000E20AF30A9701860137FD11C02091220472
:105A50002095209322046A547C4F8F4F9F4F609370
:105A60002304709324048093250490932604F090DB
:105A7000220481E00E94011B80915B04982F9270A8
:105A800062E122E081FF02C068E02CE080917C2D81
:105A9000843170F480917E2D861750F008EE11E16C
:105AA000911102C002EE11E143E080E50E943BCB80
:105AB00080917C2D8431A0F480917E2D823080F005
:105AC000FF2031F080918D070CEA11E1811102C0B5
:105AD00006E711E122E143E062E088E60E943BCB69
